:020000040800F2
:1000000020070020B5010008211700082516000868
:100010001D170008710200084518000800000000C4
:100020000000000000000000000000002917000888
:100030007502000800000000251700082D170008B1
:10004000CF010008CF010008CF010008CF01000850
:10005000CF010008CF010008CF010008CF01000840
:10006000CF010008CF010008CF010008CF01000830
:10007000CF010008CF010008CF010008CF01000820
:10008000CF010008CF010008CF010008CF01000810
:10009000CF010008CF010008CF010008CF01000800
:1000A000CF010008CF010008CF010008CF010008F0
:1000B000CF010008CF010008CF010008CF010008E0
:1000C000CF010008CF010008CF010008CF010008D0
:1000D000CF010008CF010008CF010008CF010008C0
:1000E000CF010008CF010008CF01000800F002F89E
:1000F00000F050F814A696E8000CB244B344DA4578
:1001000001D100F047F8BAE80F000FA696E83000DA
:10011000A5EB040504EB0607AAEB0704A7F101070A
:100120004FEA15154FEA3414A4F10104AC4201D38F
:1001300000F030F813F0010F18BFFB1A43F0010371
:1001400000F001F8DBE718479C1D0000BC1D000013
:10015000103A24BF78C878C1FAD8520724BF30C8F3
:1001600030C144BF04680C60704700007047000055
:100170000023002400250026103A28BF78C1FBD8B0
:10018000520728BF30C148BF0B6070471FB51FBD65
:1001900010B510BD00F031F81146FFF7F7FF01F080
:1001A00055FB00F04FF803B4FFF7F2FF03BC00F07B
:1001B00057F800000948804709480047FEE7FEE776
:1001C000FEE7FEE7FEE7FEE7FEE7FEE7FEE7FEE707
:1001D00004480549054A064B7047000031170008DE
:1001E000ED0000082001002020070020200300204F
:1001F00020030020704770477047754600F02CF8C8
:10020000AE4605006946534620F00700854618B003
:1002100020B5FFF7DDFFBDE820404FF000064FF0AE
:1002200000074FF000084FF0000BAC46ACE8C009E7
:10023000ACE8C009ACE8C009ACE8C00921F007018E
:100240008D46704710B50446AFF300802046BDE8E8
:100250001040FFF7A8BF00000048704710000020C2
:1002600001491820ABBEFEE72600020070470000DF
:10027000FEE7000070470000EFF3108072B600BF89
:10028000FEE700002DE9F04F83B00546A0F1804065
:10029000A0F584304FEAB024052C894606D341F6F8
:1002A0003660C0F60000BD2101F0CEFAD9F800009A
:1002B0000021B1EB104F01D180B230B941F6366068
:1002C000C0F60000BE2101F0BFFAD9F804004FF6D5
:1002D000FF71C1F2100188424FF6FF71C1F2210196
:1002E0000ADC122829D8012101FA00F00F21C0F2FE
:1002F0000601084228D120E088420FDC0021C1F22B
:100300001101884220D00021C1F2120188421BD085
:100310000021C1F22101884216D00EE00021C1F275
:100320002201884210D00021C1F2310188420BD055
:100330000021C1F23201884206D041F63660C0F693
:100340000000BF2101F080FAD9F80000002800F079
:10035000778140F20C4C40F2004E41F20041C4F271
:10036000010CC4F2010EC4F2010104224FF0000896
:1003700000264FF0000A8D4208BF0322009201942C
:1003800046E000BF41F20002C4F201029542009A29
:1003900008BF022208F00C070F24BC40A143BA405A
:1003A000B308114340F82310D9F80400C102DEF865
:1003B000081054BF21EA0B0141EA0B01CEF80810E6
:1003C000019CDCF80010820254BF21EA0B0141EAD3
:1003D0000B01CCF800108203DEF8041054BF21EAB0
:1003E0000B0141EA0B01C003CEF80410DEF8000057
:1003F00054BF20EA0B0040EA0B00CEF80000D9F809
:100400000000013630FA06F108F1040800F0188106
:10041000012101FA06F710EA070BF0D0052C0ED3E4
:1004200041F63660C0F60000CD2101F00DFA40F231
:10043000004E40F20C4CC4F2010EC4F2010CD9F88B
:1004400004004FF6FF71C1F21001884228DC122827
:1004500000F2BE80DFE800F04A0A8A86BCBCBCBC61
:10046000BCBCBCBCBCBCBCBCBC6CA400D9F80CA063
:10047000AAF101000328C0F0AB8041F63660C0F657
:100480000000D52101F0E0F940F2004E40F20C4CA2
:10049000D9F80CA0C4F2010EC4F2010C98E000BF20
:1004A0004FF6FF71C1F2210188420FDC0021C1F239
:1004B000110188421AD00021C1F21201884215D0E0
:1004C0000021C1F22101884210D081E00021C1F257
:1004D000220188420AD00021C1F23101884205D0B0
:1004E0000021C1F23201884272D100BFD9F8080060
:1004F000032810D341F63660C0F60000F72101F062
:10050000A3F940F2004E40F20C4CD9F80800C4F2B6
:10051000010EC4F2010C38B1012814BF6F612F61C4
:100520004FF0080A54E000BF4FF0040A50E000BF4B
:10053000D9F80C00411E032910D341F63660C0F6ED
:100540000000DC2101F080F940F2004E40F20C4C3A
:10055000D9F80C00C4F2010EC4F2010C00F1040A37
:1005600036E000BF4FF0000A32E000BFD9F80C00BF
:10057000411E032910D341F63660C0F60000E32186
:1005800001F062F940F2004E40F20C4CD9F80C0038
:10059000C4F2010EC4F2010C00F1080A18E000BF19
:1005A000D9F80C00411E032910D341F63660C0F67D
:1005B0000000EA2101F048F940F2004E40F20C4CF4
:1005C000D9F80C00C4F2010EC4F2010C00F10C0ABF
:1005D00028464146BBF5807F24BF0430203902689D
:1005E0000F238B409A430AFA01F11143016099F8F5
:1005F0000700C0067FF503AF41F21801C4F2020103
:10060000086840F6000240F001000860086826F023
:10061000030100F0010002900298AEF57E7041588F
:10062000C4F20102954209D040F60042C4F2010230
:1006300095427FF4A7AE0122ACE600BF0022A9E6F6
:1006400003B0BDE8F08F000070B516460C460546B5
:1006500031B1022E0ED2002E08BF24042C6170BDD1
:1006600041F63660C0F600004FF4EA7101F0ECF894
:10067000022EF0D341F63660C0F6000040F2D511EC
:1006800001F0E2F82C6170BD40F21810C2F20000D7
:100690000068704740F2000040F21811C2F20000FA
:1006A000C2F2000100780A68104408607047000038
:1006B00080B542F20000C4F20200016841F010016E
:1006C0000160032000F08EF80F2000F005F800F024
:1006D00027F8002080BD000070B540F20006C2F28D
:1006E000000640F208013278C2F200014FF47A733A
:1006F0000968B3FBF2F20446B1FBF2F1084600F0E0
:10070000EDFD0F2C4FF0010508D838B94FF0FF3040
:1007100021460022002500F025F87460284670BDAF
:1007200082B041F21800C4F202000168022241F0D6
:1007300001010160016801F0010101910199416825
:1007400041F080514160406800F080500090009876
:100750000420C4F20100016862F31A61016002B072
:100760007047000070B515460E46102A044606D3A1
:1007700041F66F60C0F60000A92101F065F8102E67
:1007800006D341F66F60C0F60000AA2101F05CF8C4
:100790004EF60C50CEF2000001684FF0FF33C1F36B
:1007A000022181F00702042A28BF0422033903FA38
:1007B00002F238BF002126EA02028A4003FA01F160
:1007C00025EA0101114304F00F02043A104404F138
:1007D0006042090102F56442002C48BF00F10C029E
:1007E000117070BD10B504460338052806D341F6D4
:1007F0006F60C0F60000912101F026F84EF60C5013
:10080000CEF2000001684FF6FF02114064F30A21A6
:1008100041F0806141F0FD71016010BD002804BF0E
:10082000012070472DE9F04381B0044600780D4661
:10083000000700F0B380032D07D341F6FE50C0F649
:10084000000040F2373100F0FFFF42F20008C4F22E
:100850000208D8F8000000F0070085420DD9D8F84A
:10086000000020F007002843C8F80000D8F8000076
:1008700000F00700A84240F0B180206841F204096E
:100880008107C4F202091FD5410705D5D9F8001028
:1008900041F4E061C9F80010000705D5D9F800005F
:1008A00040F46050C9F80000A0686FF0070101EB48
:1008B0003011082980F0E280D9F8001021F0F00111
:1008C0000843C9F800002068C00773D1D8F80000B9
:1008D00000F0070085420CD2D8F8000020F0070095
:1008E0002843C8F80000D8F8000000F00700A8422C
:1008F00074D1206841071AD5E0686FF0030101EB5D
:10090000302104290BD34FEA302141B141F6FE508A
:10091000C0F6000040F2A23100F096FFE068D9F87E
:10092000001021F4E0610843C9F8000020680007C6
:100930001AD520696FF0030101EB302104290BD394
:100940004FEA302141B141F6FE50C0F6000040F2BE
:10095000A93100F079FF2069D9F8001021F4605125
:1009600041EAC000C9F80000D9F8002002F00C00EC
:10097000082841F20020C0F27A0063D141F6B65354
:10098000C2F38341C0F60003595CD2034ED440F653
:100990000010C0F23D00484354E000BF41F6FE5055
:1009A000C0F6000040F2363100F04EFF032DBFF4D8
:1009B00044AF4AE76068032808D341F6FE50C0F60A
:1009C00000004FF4597100F03FFF606859F8041CB3
:1009D000022807D0012825D1890305D4012001B0C0
:1009E000BDE8F0838901F9D5D9F8001021F00301A1
:1009F0000843C9F80000FFF747FE064641F2883772
:100A0000D9F80000616800F00C00B0EB810F3FF4F2
:100A10005DAFFFF739FE801BB842F1D9032001B06A
:100A2000BDE8F0838907D9D5DEE700BFD9F80020FB
:100A300041F6B453C2F34042C0F600039A5C484307
:100A4000B0FBF2F0D9F8001041F69C52C1F303114B
:100A5000C0F60002515C40F2080220FA01F140F2B7
:100A60000400C2F200000068C2F200021160FFF749
:100A700033FE002001B0BDE8F08300BF4FEA301123
:100A800000293FF419AF41F6FE50C0F6000040F2D5
:100A90005D3100F0D9FEA0680EE7000040F20800CA
:100AA00041F20401C2F20000C4F2020100680968C8
:100AB00041F6AC52C1F30221C0F60002515CC840BD
:100AC0007047000040F2080041F20401C2F2000049
:100AD000C4F202010068096841F6AC52C1F3C221B8
:100AE000C0F60002515CC84070470000002804BFF7
:100AF000012070472DE9F04182B00446006858B1EA
:100B000010F00F0108D141F6FE50C0F6000040F28F
:100B1000651100F099FE206841F20006C007C4F29A
:100B2000020612D06068002818BFB0F5803F40F080
:100B30000781706800F00C00042815D1306880032C
:100B400003D56068002800F0AF812078800752D577
:100B50002069022820D26069202828D2706810F00D
:100B60000C0F30D139E000BF706800F00C0008288D
:100B700002D17068C003E1D461683068002900F0D8
:100B8000F581B1F5A02F00F0E981B1F5803F40F08B
:100B9000038240F4803005E241F6FE50C0F60000CA
:100BA00040F29F1100F050FE60692028D6D341F634
:100BB000FE50C0F600004FF4D07100F045FE7068A2
:100BC00010F00C0F09D0706800F00C00082840F0FD
:100BD0008D807068C00300F189803068800703D57C
:100BE0002069012840F060813068616920F0F800D8
:100BF00040EAC1003060207800071FD42078400709
:100C000042D4E069032808D341F6FE50C0F6000044
:100C100040F2AD2100F018FEE069002800F03F81AD
:100C2000716801F00C01082940F0B080012840F003
:100C30002B81012002B0BDE8F08100BFA06902282D
:100C400008D341F6FE50C0F600004FF4F07100F0FA
:100C5000FBFDA069002800F081806020C4F24220E2
:100C60000121C0F82014FFF70FFD0546706A8007C8
:100C700000F1C080FFF708FD401B0228F6D90320D1
:100C800002B0BDE8F08100BFE068052800F2EE8008
:100C9000012101FA00F010F0230F00F0E780F06965
:100CA0005FEAC00808D4F06940F08050F061F06954
:100CB00000F080500090009847F20007C4F200074F
:100CC0003868C0052ED4386840F480703860FFF76B
:100CD000DBFC05463868C00524D4FFF7D5FC401B73
:100CE0006428F7D9032002B0BDE8F081206900280C
:100CF00040F26000C4F2422000F0A680012140F8DA
:100D0000601CFFF7C1FC0546306880073FF56CAFFB
:100D1000FFF7BAFC401B0228F6D9032002B0BDE859
:100D2000F08100BFE168306A002900F0DD8005290C
:100D300000F0D280012940F0EF8040F00100F1E0A6
:100D4000B0F5A02F3FF4F5AE41F6FE50C0F600001E
:100D500040F26B1100F078FDEBE600BF6020C4F2BA
:100D600042200021C0F82014FFF78EFC054600BF8A
:100D7000706A80077FF542AFFFF786FC401B0228B0
:100D8000F6D9032002B0BDE8F08100BF022840F090
:100D90008F80206A40F48030B0F5803F07D041F664
:100DA000FE50C0F6000040F2B62100F04DFD606A32
:100DB0004FEAB0400F2807D341F6FE50C0F60000BE
:100DC00040F2B72100F040FD6027C4F24227002026
:100DD0003860FFF759FC05463068800140F1F48027
:100DE000FFF752FC401B02284FF00300F4D902B079
:100DF000BDE8F08140F20800C2F20000006844F64D
:100E0000D351C1F26201A0FB0101480A019000BF69
:100E100000BF0198411E002801913FF4EFAE00BFD2
:100E20000198411E002801913FF4E8AE00BF0198EF
:100E3000411E002801913FF4E1AE00BF0198411E20
:100E400000280191E4D1D9E6002140F8601CFFF7A9
:100E50001BFC0546306880077FF5CDAEFFF714FC1C
:100E6000401B02284FF00300F4D9C0E741F6FE50C2
:100E7000C0F6000040F20F2100F0E6FCF0695FEAE6
:100E8000C0087FF510AF17E77068216A00F4803260
:100E90008A4209D1616A00F47010884204D10020AE
:100EA00002B0BDE8F08100BF012002B0BDE8F081D2
:100EB0006020C4F2422000210160FFF7E5FB0446F8
:100EC00030688001EBD5FFF7DFFB001B02284FF0F5
:100ED0000300F5D98BE700BF40F004003062306AB0
:100EE00040F001001EE000BF20F001003062306AD7
:100EF00020F004003062FFF7C7FB054641F2883757
:100F0000306A800720D5FFF7BFFB401BB8424FF087
:100F10000300F5D96BE700BF20F001003062306AB2
:100F200020F004003062FFF7AFFB054641F288373E
:100F3000306A800708D4FFF7A7FB401BB842F7D9F7
:100F4000032002B0BDE8F081B8F1000F3FF559AEC3
:100F5000F06920F08050F06153E600BF40F480203B
:100F60003060306840F480301CE000BF20F48030F6
:100F70003060306820F480203060FFF785FB054644
:100F8000306880037FF5E1ADFFF77EFB401B6428EE
:100F90004FF00300F4D92AE720F480303060306845
:100FA00020F480203060FFF76FFB05463068800337
:100FB0003FF5CBADFFF768FB401B6428F6D9032053
:100FC00002B0BDE8F08100BF206AB0F5803F14D1C7
:100FD000A06840F40031B1F5003F08D041F6FE5062
:100FE000C0F6000040F2CD2100F02EFCA068716830
:100FF00021F4003108437060206A7168626A21F44C
:10100000741108431043706001203860FFF73CFB07
:10101000044600BF306880013FF541AFFFF734FB65
:10102000001B02284FF00300F4D9E0E6002804BFBB
:101030000120704710B50446006843F60001C4F271
:10104000000188420DD043F20001C4F20101884240
:1010500007D041F6C650C0F600004FF4AC7100F066
:10106000F3FB606850B1B0F5827F07D041F6C650FF
:10107000C0F6000040F2591100F0E6FBA06800281D
:1010800018BFB0F5806F6DD1E06840F40060B0F536
:10109000006F07D041F6C650C0F6000040F25B1169
:1010A00000F0D2FBA069002818BFB0F5007F67D11F
:1010B000E0694FEAF000082808D2206A40F080007A
:1010C000802810D1606AC0B932E000BF41F6C65036
:1010D000C0F6000040F25D1100F0B6FB206A40F05F
:1010E00080008028EED041F6C650C0F600004FF4D4
:1010F000AF7100F0A9FB606AD0B141F6C650C0F6EE
:10110000000040F2611100F09FFB606A80B1E0696D
:101110004FEAF000082807D341F6C650C0F6000099
:1011200040F2731100F090FB0020C4E904004EE08F
:10113000206940F00200022830D16069022838D2CC
:101140006068B0F5827F40D1E0694FEAF00008287E
:101150003DD341F6C650C0F6000040F2691100F0E0
:1011600073FB34E0B0F5004F3FF48EAF41F6C6504C
:10117000C0F600004FF4AD7100F066FB84E700BFDD
:10118000B0F5802F3FF494AF41F6C650C0F6000092
:101190004FF4AE7100F058FB8AE700BF41F6C6502D
:1011A000C0F600004FF4B27100F04EFB60690228F7
:1011B000C6D341F6C650C0F6000040F2651100F0FB
:1011C00043FB6068B0F5827FBED00020E061002064
:1011D000A06294F8511029B984F85000204600F01C
:1011E0003FF80020022184F85110D4E9001ED4E910
:1011F000023C0A6803F4044322F040020A600EF441
:10120000827203EB020E0CF4006322690EEB030CF6
:10121000636902F00202D4F818E0944403F0010379
:10122000E2699C440EF400739C4402F03802236A85
:101230009444A26A03F0800343EA0C0302F40052D0
:101240001A430A60042202EA1E424A60CA6922F472
:101250000062CA610121606584F8511010BD000070
:1012600070B586B040F60004C4F20104006804F5CD
:101270002051002688420596CDE90366029601D0EA
:1012800006B070BD41F21800C4F20200016802AD60
:1012900041F480510160016801F48051019101998C
:1012A000016841F0040101600068294600F0040073
:1012B00001900198202002900220039003200590C5
:1012C0002046FEF7DFFF4020CDE9020620462946F2
:1012D0000496FEF7D7FF06B070BD0000411E002047
:1012E000B0EB116F1CBF012070474EF21002CEF21E
:1012F000000251604EF62351CEF20001F0230B7034
:101300000721906011607047002804BF01207047DA
:1013100010B504468069216810B344F20042C4F25B
:101320000002914214D044F60002C4F2000291423D
:101330000ED043F60002C4F20102914208D041F6F9
:10134000AA60C0F600004FF4B77100F07DFAA06902
:101350004FEA302004281DD340F26F1114E000BF83
:1013600044F20040C4F20000814213D044F6000071
:10137000C4F2000081420DD043F60000C4F2010027
:10138000814207D040F2731141F6AA60C0F6000016
:1013900000F05AFAA06840F48050B0F5805F23D185
:1013A00094F8410060B3242084F841002068C168AB
:1013B00021F40051C160204600F0BCF920680169A9
:1013C00021F490410161416921F02A014161C16824
:1013D00041F40051C16000202021606484F8411074
:1013E00084F84210606310BD41F6AA60C0F60000A8
:1013F00040F2751100F028FA94F841000028D2D18B
:10140000002084F84000204600F002F8CBE70000FE
:1014100070B586B040F60004C4F20104006804F51B
:101420004051002688420596CDE90366029601D018
:1014300006B070BD41F21800C4F20200016802ADAE
:1014400041F480410160016801F4804101910199FA
:10145000016841F0040101600068294600F00400C1
:10146000019001984FF40070029002200390032035
:1014700005902046FEF706FF4FF48060CDE9020696
:10148000204629460496FEF7FDFE06B070BD00001A
:101490002DE9F04381B0044690F84100202809D19D
:1014A00000294FF0010018BF002A07D101B0BDE8A4
:1014B000F08300BF022001B0BDE8F083002060642B
:1014C00021201D460E4684F841001746FFF7DCF840
:1014D000A784E784A1688146B1F5805F02D12069C5
:1014E00000285DD037460020E28C2168002A5DD0BC
:1014F0006A1C24D0002D4AD0804600BF0868000630
:1015000008D4FFF7C1F8A0EB0900A8427AD82168F7
:10151000C868F3E717B117F8010B04E038F8020BBD
:1015200000276FF35F204860E08C0138E084E08C96
:101530000028E3D13AE000BF0A68120609D40A681D
:10154000120606D40A6812065CBF0A685FEA0262E5
:10155000F2D51FB117F8012B05E000BF30F8022BC0
:1015600000276FF35F224A60E28C013AE284E28C4A
:10157000002AE4D11AE000BF30F8022B00276FF3F5
:101580005F224A60E28C013AE284E28C72B10A681E
:10159000120635D5002FEFD017F8012BF1E700BF69
:1015A00000273046E28C2168002AA1D10868400655
:1015B0001ED42DB3681C14D1086840062AD40868CC
:1015C000400627D40868400624D4086840064FF037
:1015D0000000F1D50DE000BF2068C168006840063A
:1015E00018D4FFF751F8A0EB0900A842F4D909E09C
:1015F0000020202184F8411001B0BDE8F08300BF35
:10160000FFF742F80320202184F8411001B0BDE823
:10161000F08300BF0020202184F8411001B0BDE814
:10162000F0830000FEE70000F0B585B0002541F230
:101630001800CDE90355CDE90155C4F20200016857
:1016400040F6000441F0200101600168C4F2010489
:1016500001F02001009100990168012241F004018C
:10166000016000680F2100F00400009000982046FF
:101670000F260127FEF7E8FF0320049001A920466A
:10168000CDE901670395FEF7FDFD05B0F0BD000053
:1016900010B540F2780043F2000CC2F20000C4F230
:1016A000010C4FF482724FF4806300214FF4007EEE
:1016B0002024C0E900C20A22C0E90231C0E90411B5
:1016C000C0E906E4C0E90811C0E90A12FFF7AEFC60
:1016D000002808BF10BDBDE81040FEF7CDBD0000DA
:1016E00080B540F2D00043F60001C2F20000C4F21F
:1016F000010100234FF00C0C4FF4E13280E80E00A2
:10170000C0E90333C0E905C3C361FFF7FDFD00284D
:1017100008BF80BDBDE88040FEF7AEBDFEE700001B
:10172000FEE700007047000070470000FEF7B2BF00
:101730007047000010B5044640684AF62121C0F207
:101740004401884207D341F6AA60C0F6000040F683
:10175000756100F079F8E06840F40050B0F5005F82
:1017600007D041F6AA60C0F6000040F6766100F0AE
:101770006BF82069002818BFB0F5806F56D16069FA
:1017800018B14FF6F371084007D041F6AA60C0F6D1
:10179000000040F6786100F057F82068D4E902C2F2
:1017A0002369016921F4405111430161616943EAF0
:1017B0000C021143C26841F20C639A431143C160A9
:1017C0004169A26921F44071114343F60002C4F259
:1017D00001029042416103D0FFF760F902E000BFCF
:1017E000FFF770F9D4E90023192148439900B0FBB1
:1017F000F1F048F21F51C5F2EB11A0FB013463096F
:101800004FF69C74C0F6FF7403FB0400322404EB13
:101810000010A0FB0101F02000EA511000EB0310C2
:10182000C1F343110844906010BD00BFB0F5C06F14
:10183000A5D041F6AA60C0F6000040F6776100F03E
:1018400003F89CE7FEE7000070470000B8B0FEF721
:101850002FFF00240120CDE92244CDE920441D9032
:1018600021904FF4E0104FF48031022526901DA8FE
:10187000CDE91E14CDE92451FFF738F920B1EFF37B
:10188000108072B6FEE700BF0F20CDE905054FF4CA
:101890008060079408904FF4A06005AC0990204642
:1018A0000221FEF7BBFF28B1EFF3108072B600BF34
:1018B000FEE700BFFFF7B8FEFFF7EAFEFFF710FFF5
:1018C00040F2700840F27809C2F20008C2F2000942
:1018D00041F2210BFEF7D8FED8F80410411AB1F5F9
:1018E000FA7FF7D30025C8F8040000BF05EB4500D8
:1018F00004EB400604F810500FF2804000EBC500E6
:101900008788002140F60000C6F801107171C4F20A
:10191000010039460022A04606F1010AFEF794FEB6
:1019200028201D901D98411E1D9160B11D98411EDB
:101930001D9140B11D98411E1D9120B11D98411E61
:1019400000281D91EED1D9F80000016841F0400156
:101950000160FEF799FE0446D9F800008168890706
:1019600006D4FEF791FE001B0428F5D97EE000BFE7
:1019700000210173FEF788FE044600BFD9F800007D
:101980008168C90706D1FEF77FFE001B0428F5D940
:101990006CE000BF007B0490FEF776FE044600BFBB
:1019A000D9F800008168890706D4FEF76DFE001B98
:1019B0000428F5D95AE000BF00210173FEF764FE48
:1019C000044600BFD9F800008168C90706D1FEF7B8
:1019D0005BFE001B0428F5D948E000BF007B0390A4
:1019E000FEF752FE044600BFD9F80000816889075F
:1019F00006D4FEF749FE001B0428F5D936E000BFE7
:101A000000210173FEF740FE044600BFD9F8000034
:101A10008168C90706D1FEF737FE001B0428F5D9F7
:101A200024E000BF007B019040B20290FEF72CFE44
:101A3000044600BFD9F800008168890706D4FEF784
:101A400023FE001B0428F5D910E000BF002101731C
:101A5000FEF71AFE044600BFD9F800008168C907E6
:101A600036D1FEF711FE001B0428F5D9D9F8000085
:101A7000016821F04001016000211D91C1681D91A4
:101A800080681D901D9828201D9000BF1D98411E44
:101A90001D9160B11D98411E1D9140B11D98411EC0
:101AA0001D9120B11D98411E00281D91EED140F6D8
:101AB0000000C4F2010039460122FEF7C5FD802076
:101AC0008AF8000001354446042D7FF40FAF4DE045
:101AD000047B016821F04001016000211D91C16873
:101AE0001D9180681D901D9828201D901D98411EF5
:101AF0001D9160B11D98411E1D9140B11D98411E60
:101B00001D9120B11D98411E00281D91EED140F677
:101B10000000C4F2010039460122FEF795FD049948
:101B200004F007020806039872704FEA004040EA8A
:101B3000016001994FEA904044EA012148BF00F555
:101B40004040029B0909002B48BF01F57041002A63
:101B50004FF0000218BF1046708018BF1146B180C8
:101B600001354446042D7FF4C1AE00BF40F2700839
:101B700045F2AA50C2F20008ADF8740098F80000CF
:101B800001218DF87710411C8DF8780004208DF824
:101B900079009DF8140088F800109DF8151000F0E9
:101BA0000F008DF87A008DF87B10DDF816009DF897
:101BB0001A101F9001F00F009DF81B108DF8800087
:101BC000BDF81C008DF88110BDF81E10ADF8820024
:101BD0009DF82000ADF884109DF8211000F00F0052
:101BE0008DF886008DF88710DDF822009DF826100C
:101BF000229001F00F008DF88C009DF827000A99C3
:101C00008DF88D001B208DF876004FF6FF736FF076
:101C100002001DADCDF88E102918CF780A7983EA1D
:101C200007231FB25E004979002F48BF8BEA4306A5
:101C300033B27700002B48BF8BEA46073BB27E00E9
:101C4000002B48BF8BEA470633B27700002B48BF12
:101C50008BEA46073BB27E00002B48BF8BEA470663
:101C600033B27700002B48BF8BEA46073BB27E00B9
:101C7000002B48BF8BEA470633B27700002B48BFE2
:101C80008BEA460787EA022213B25700002B48BFAF
:101C90008BEA42073AB27B00002A48BF8BEA47032F
:101CA0001AB25F00002A48BF8BEA43073AB27B00B2
:101CB000002A48BF8BEA47031AB25F00002A48BFD8
:101CC0008BEA43073AB27B00002A48BF8BEA4703FE
:101CD0001AB25F00002A48BF8BEA43073AB27B0082
:101CE000002A48BF8BEA470383EA01210AB24B006E
:101CF000002A48BF8BEA410319B25A00002948BFA5
:101D00008BEA430211B25300002948BF8BEA420319
:101D100019B25A00002948BF8BEA430211B253009E
:101D2000002948BF8BEA420319B25A00002948BF74
:101D30008BEA430211B25700002948BF8BEA4207E1
:101D400039B27B00002900F1030048BF8BEA47034A
:101D50001B287FF461AF180A8DF8920040F60D2021
:101D6000ADF8940040F2D0008DF89330C2F200003C
:101D7000294622226423FFF78BFBABE500080140D4
:101D800001000000000801400200000000080140BE
:101D900004000000000801400800000000000000EE
:101DA000000000000102030406070809000000000B
:101DB00001020304010202030405060708090A0BD5
:101DC0000C0D0E0F10102E2E2F4472697665727353
:101DD0002F53544D3332463178785F48414C5F443D
:101DE00072697665722F5372632F73746D33326626
:101DF0003178785F68616C5F7370692E63002E2E96
:101E00002F447269766572732F53544D33324631C5
:101E100078785F48414C5F4472697665722F5372DF
:101E2000632F73746D3332663178785F68616C5FED
:101E30007263632E63002E2E2F447269766572736F
:101E40002F53544D3332463178785F48414C5F44CC
:101E500072697665722F5372632F73746D333266B5
:101E60003178785F68616C5F6770696F2E63002EF0
:101E70002E2F447269766572732F53544D33324658
:101E80003178785F48414C5F4472697665722F53B0
:101E900072632F73746D3332663178785F68616C6A
:101EA0005F636F727465782E63002E2E2F44726903
:101EB000766572732F53544D3332463178785F48CC
:101EC000414C5F4472697665722F5372632F73744D
:101ED0006D3332663178785F68616C5F75617274FA
:101EE0002E630000081F0008000000201000000002
:101EF00050010008181F0008100000201007000003
:101F00007001000800000000010000001000000047
:081F100000127A00000000003D
:04000005080000ED02
:00000001FF
