:020000040800F2
:10000000F00F0020B5010008CD370008F5360008D4
:10001000C937000841150008855400080000000099
:10002000000000000000000000000000993D0008F2
:100030004515000800000000D13700089D3D00086C
:10004000CF010008CF010008CF010008CF01000850
:10005000CF010008CF010008CF010008CF01000840
:10006000CF010008CF010008CF010008CF01000830
:10007000CF010008CF010008CF010008CF01000820
:10008000CF010008CF010008CF010008CF01000810
:10009000CF010008CF010008CF010008CF01000800
:1000A000CF010008CF010008CF010008CF010008F0
:1000B000CF010008CF010008CF010008CF010008E0
:1000C000CF010008CF010008CF010008CF010008D0
:1000D000CF01000879540008CF010008CF010008C3
:1000E000CF010008CF010008CF01000800F002F89E
:1000F00000F050F814A696E8000CB244B344DA4578
:1001000001D100F047F8BAE80F000FA696E83000DA
:10011000A5EB040504EB0607AAEB0704A7F101070A
:100120004FEA15154FEA3414A4F10104AC4201D38F
:1001300000F030F813F0010F18BFFB1A43F0010371
:1001400000F001F8DBE7184788690000A8690000A3
:10015000103A24BF78C878C1FAD8520724BF30C8F3
:1001600030C144BF04680C60704700007047000055
:100170000023002400250026103A28BF78C1FBD8B0
:10018000520728BF30C148BF0B6070471FB51FBD65
:1001900010B510BD00F0F6F81146FFF7F7FF05F0B7
:1001A00075F900F014F903B4FFF7F2FF03BC00F097
:1001B00017F900000948804709480047FEE7FEE7B5
:1001C000FEE7FEE7FEE7FEE7FEE7FEE7FEE7FEE707
:1001D00004480549054A064B70470000A13D000848
:1001E000ED000008F0050020F00F0020F0070020CF
:1001F000F007002053EA020C23D010B54C1084EA1B
:10020000530404D54042C1F1000138BF491E1B42CE
:1002100004D55242C3F1000338BF5B1E00F027F83B
:1002200014F0804F04D04042C1F1000138BF491E94
:1002300014F0004F04D05242C3F1000338BF5B1EDC
:1002400010BD13B540424FF0000070EB0104B8BF81
:10025000012001F0004100281CBF6FF000414FF069
:10026000FF30AFF300801CBD70477047704753EA02
:10027000020C00F069802DE9F04B4FF00006002BD6
:100280001FBFB3FA83F503FA05F424FA05F65E40BE
:1002900012BF1643B2FA82F502FA05F4C5F1200541
:1002A0001EBF22FA05FC44EA0C04203556EA044C31
:1002B0004FEA144418BF641C4FF000084FF00009C7
:1002C000904271EB030C39D3002919BFB1FA81F7C1
:1002D00001FA07F6B0FA80F700FA07F6C7F120072F
:1002E0001EBF20FA07FC46EA0C062037B6FBF4FCDA
:1002F000A7EB0507103F07F01F0BCBF120062CFAE8
:1003000006F60CFA0BFB44BFB3460026202FA4BF11
:100310005E464FF0000B5BEA060C08BF4FF0010B86
:1003200019EB0B0948EB0608ABFB027C06FB02CC81
:100330000BFB03CCC01B71EB0C01C1E70B46024663
:1003400041464846BDE8F08B13B5084318BF4FF04F
:10035000FF300146AFF30080BDE81C40704710B588
:1003600000F008F8006810BD10B5044600F002F86F
:10037000046010BD0048704710000020004870471E
:10038000100000207546FFF7F9FFAE4605006946EC
:10039000534620F00700854618B020B5FFF718FF38
:1003A000BDE820404FF000064FF000074FF0000876
:1003B0004FF0000BAC46ACE8C009ACE8C009ACE8B3
:1003C000C009ACE8C00921F007018D46704710B59F
:1003D0000446AFF300802046BDE81040FFF7E3BEBF
:1003E00001491820ABBEFEE726000200704700005E
:1003F000002818BF002901D1704700BF80B50278DE
:10040000437890F802C002F0F00203F00E031A44A1
:100410000CF001031A440A70C278037990F805C001
:1004200002F0E00203F0180390F806E01A440CF022
:10043000040302EB030CC2790EF00203634402F0E2
:1004400001021A444A70027A437A90F80AC090F87E
:100450000BE002F0C00203F030031A440CF0080372
:100460001A440EF007031A448A70027B437B807B98
:1004700002F0E00203F01C031A4400F002001044F2
:10048000C870BDE880407047B0B546F63A12C1F377
:100490004201C0F6000232F811100446084605F089
:1004A000AFFF0546204605F093FF04460020C4F642
:1004B000FA10294605F07AFE214606F01DF84FF0A5
:1004C000505106F019F8B0BD002808BF70474FF42E
:1004D0008031016040F20041C0F2001141604FF4F0
:1004E000805101810021C0F80A108173704700001B
:1004F0002DE9F04F8FB000294FF0010518BF002AF9
:1005000004D128460FB0BDE8F08F00BFCDE901212E
:10051000C0B1C178077806918179447883780579EC
:100520004679059190F807B090F8089090F809E0A6
:10053000827A90F80B8090F80CA0417B90F80EC066
:1005400016E000BF00204FF0010B4FF0100E4FF0EF
:10055000000C4FF0000905900426002506900123A9
:100560000024002700214FF0000A4FF0000800226D
:1005700005988DF82D408DF82E3004F00E0403F010
:10058000010323448DF831608DF833B006F0040682
:100590000BF00104DDF818B08DF832000298264403
:1005A0008DF8305005F018058DF82C7000272E447A
:1005B0000BF0E005C0E90077C0E90277354409F0A7
:1005C000C0070EF03006374408F007068DF83910E2
:1005D00001F01C010CF002008DF8378037448DF8D3
:1005E000362002F0080208440AF0E0010DF11C0870
:1005F0008DF83490BE1863F01F0447184FF043097C
:1006000000204146002205238DF835E08DF83AC0E0
:100610008DF82FB08DF838A08DF81C908DF81D4006
:100620008DF81E508DF81F608DF8207003F06CFA65
:1006300001204146002205238DF81C908DF81D40B5
:100640008DF81E508DF81F608DF8207003F05CFA55
:1006500002204146002205238DF81C908DF81D4094
:100660008DF81E508DF81F608DF8207003F04CFA45
:1006700003204146002205238DF81C908DF81D4073
:100680008DF81E508DF81F608DF8207003F03CFA35
:10069000042046F6001180EA5B10C0F6000151F814
:1006A000200044F6D3514068C1F2620100F2E73005
:1006B000A0FB0112950949F69A1205EBC501C1F696
:1006C000991200097C28A1FB020B6DD90020082497
:1006D0000DF13B064FF0000900274FF000084FF0E6
:1006E000000A069000900590CDE9030003F02CF974
:1006F00000203146002201238DF83B4003F004FA2C
:1007000001203146002201238DF83B4003F0FCF923
:1007100002203146002201238DF83B4003F0F4F91A
:1007200003203146002201238DF83B4003F0ECF911
:1007300003F00AF9009E6FF0180403E00134A542AB
:1007400000F09C80012003F09DF804F11A0083451D
:10075000F4D803F01BF90028F0D007A800F0F8FA4D
:10076000DDE9064008AB0ECB241849EBE07903988D
:100770007F1848EBE17880180390059846EBE27605
:10078000C018059004980AF1010A40EBE370049048
:1007900001980694009682454FF008040DF13B063F
:1007A000A4D3DDE9006A69E01935002008270DF1BE
:1007B0003B044FF000094FF0000B4FF000080026FB
:1007C0004FF0000A06900390CDE90400009503F075
:1007D000BBF800202146002201238DF83B7003F076
:1007E00093F901202146002201238DF83B7003F08C
:1007F0008BF902202146002201238DF83B7003F083
:1008000083F903202146002201238DF83B7003F079
:100810007BF903F099F85F46012003F033F803F009
:10082000B5F818B9013DF7D128E000BF07A800F0DE
:100830008FFADDE9064008AB0ECB241849EBE079CE
:10084000039817EB010B48EBE178801803900598AB
:1008500046EBE276C018059004980AF1010A40EBD5
:10086000E37004900198009D069482450DF13B04CD
:100870004FF00807ABD3DDF804A05F46BAF1000FD4
:100880001ED006984946524600230025FFF7B2FCC9
:10089000029C41462060384652460023FFF7AAFCDE
:1008A00060600398314652460023FFF7A3FCA06026
:1008B000DDE9041052460023FFF79CFCE06000E0F5
:1008C00002250BA800F0F6FA03F03EF80DF13B0408
:1008D000082600202146002201238DF83B6003F00A
:1008E00013F901202146002201238DF83B6003F01B
:1008F0000BF902202146002201238DF83B6003F012
:1009000003F903202146002201238DF83B6003F008
:10091000FBF828460FB0BDE8F08F0000F0B581B0BD
:100920000DF10304022600202146002201238DF848
:10093000036003F0E9F80546012021460022012367
:100940008DF8036003F0E0F829062F4608BF07463C
:1009500000064FF0020021464FF000024FF0010365
:1009600008BF2F468DF8036003F0CEF839063D46E8
:1009700008BF054600064FF0030021464FF0000275
:100980004FF0010308BF3D468DF8036003F0BCF84B
:100990002906294608BF0146002808BF2946C8B2D3
:1009A00001B0F0BD2DE9F04F9BB000224FF0000ADE
:1009B000ADF85E200F91E8B1417890F80090169163
:1009C000C17890F802B00A91017986791291417943
:1009D00090F807801391017A477A1491C17A90F8C0
:1009E0000AA00991017B1591417B807B11911090A8
:1009F00013E000BF04201390002010270990CDE9D8
:100A00001000CDE914004FF00108002612900A9062
:100A10004FF0010B16904FF00009029703F06CF8AD
:100A2000322002F02FFF0DF165040625002021463B
:100A3000002201238DF8655003F066F80E90012026
:100A40002146002201238DF8655003F05DF80D90DA
:100A500002202146002201238DF8655003F054F84E
:100A60000C9003202146002201238DF8655003F0ED
:100A70004BF80B904FF47A7002F00AFF16980BF0C7
:100A8000010100F00E00084409F0F00108448DF85F
:100A9000600006F0020008F0010108441399059671
:100AA00001F00401084412990A9E01F0180108445B
:100AB00006F0E00108448DF86100CDF804A00AF0CA
:100AC0000800DDF824A043250AF00701084407F0D8
:100AD0003001084414990DF1660701F0C001084483
:100AE0008DF862001598119900F0E00001F01C01EA
:100AF00008441099002201F0020108448DF86300B7
:100B0000189C002039460523CDF80C90CDF81080B4
:100B10008DF86650CDF8674002F0F6FF814601205F
:100B20003946002205238DF86650CDF8674002F063
:100B3000EBFF089002203946002205238DF866500D
:100B4000CDF8674002F0E0FF07900320394600220D
:100B500005238DF86650CDF8674002F0D5FF06906A
:100B600018A80DF15E0100F08DFB804640F2F40004
:100B70000399C2F20000417016990DF16B05817066
:100B8000129980F803B0417113990671817105992A
:100B900080F80CA0C17104990824017214990022F4
:100BA000417202990123817201998DF86B40C172E3
:100BB00015994173119981731099C17301210170C5
:100BC0000020294602F0A0FF82460120294600228B
:100BD00001238DF86B4002F097FF834602202946DF
:100BE000002201238DF86B4002F08EFF07460320A0
:100BF0002946002201238DF86B4002F085FF0F9AF1
:100C0000002A1CBFBDF85E1011805FEA0A615146E0
:100C100008BF59465FEA0B6208BF51460A060A46FA
:100C200008BF3A463B0608BF0A461106114608BFF0
:100C30000146002808BF11465FEA0960089A484645
:100C400008BF1046120608BF48460206079B024628
:100C500008BF1A461B0608BF024610061046069B30
:100C600008BF1846002B08BF10460E9F0D9B3A0682
:100C70003A4608BF1A461B0608BF3A4613060C9FA1
:100C8000134608BF3B463F0608BF13461A060B9F94
:100C90001A4608BF3A46002F08BF1A46030608BF87
:100CA0001046130618BF10460206024608BF424609
:100CB000B8F1000F08BF0246080608BF114610062B
:100CC00018BF1146C8B21BB0BDE8F08F042181EAFD
:100CD000501046F60011C0F6000151F82000704790
:100CE00070B582B0064600208DF80600ADF804000D
:100CF0008DF80200ADF8000071B1022014460D46D7
:100D000002F0C6FD01A96A463046032302F0FCFE4C
:100D100030B102B070BD00BF012002B070BD00BF95
:100D20009DF800309DF802109DF801005AB241EA8A
:100D3000034343EA0023002A48BF03F17F43002C0A
:100D40002B601EBF22706070A170002002B070BDC9
:100D500070B582B000283FD00446002502208DF8EF
:100D60000650ADF804508DF80250ADF8005002F076
:100D70008FFD01A96A460020032302F0C5FE064646
:100D800000284FF000000ED19DF900109DF80220C0
:100D9000C8B29DF8013042EA004040EA0320002931
:100DA00048BF00F17F40206002208DF80650ADF86A
:100DB00004508DF80250ADF8005002F069FD01A911
:100DC0006A460120032302F09FFE48B10546002E2B
:100DD00018BF3546002013E00125284602B070BD3B
:100DE0009DF900109DF80220C8B29DF8013042EA3A
:100DF000004040EA03203546002948BF00F17F400B
:100E0000606000208DF80600ADF804008DF8020047
:100E1000ADF80000022002F03BFD01A96A46022065
:100E2000032302F071FE28B1002D08BF0546002003
:100E30000FE000BF9DF900109DF80220C8B29DF898
:100E4000013042EA004040EA0320002948BF00F197
:100E50007F40A06000208DF80600ADF804008DF8FA
:100E60000200ADF80000022002F012FD01A96A465E
:100E70000320032302F048FE40B1002D08BF0546C1
:100E80000020E060284602B070BD00BF9DF9001050
:100E90009DF80220C8B29DF8013042EA004040EAC5
:100EA0000320002948BF00F17F40E060284602B0DF
:100EB00070BD00002DE9F04F83B000284FF0010510
:100EC00000F0B18001784278837821F00F0102F0C0
:100ED0000E02114403F00102C77801EB020A017906
:100EE000437927F01F0201F01801114403F00402B6
:100EF0008379114403F00202C379114403F0010223
:100F000001EB020B017A427A837A21F03F0102F071
:100F10003002114403F00802C37A114403F00702BF
:100F200001EB0208017B427B837B21F01F0102F071
:100F30001C02114403F002028E1843210DF1070533
:100F40008DF80710044600202946002205234FF0A3
:100F500043098DF808A08DF809B08DF80A808DF846
:100F60000B6002F0D1FD074601202946002205232F
:100F70008DF807908DF808A08DF809B08DF80A80DB
:100F80008DF80B60A94602F0BFFD39063D4608BF4B
:100F90000546000608BF3D46432702204946002279
:100FA00005238DF807708DF808A08DF809B08DF82D
:100FB0000A808DF80B6002F0A7FD2906A94608BF3C
:100FC000814600064FF003000DF107014FF00002CB
:100FD0004FF0050308BFA9468DF807708DF808A0EB
:100FE0008DF809B08DF80A808DF80B6002F08CFD49
:100FF00040F2F4065FEA0961C2F200064FF0010513
:1010000021686268A368D4F80B7035704D4608BF3C
:101010000546002808BF4D46C6F80110C6F8052051
:10102000C6F80930F760E8B203B0BDE8F08F000001
:1010300040F2F401C2F200010A78012A1EBF012128
:10104000C8B270472DE9F04182B000F0F00048705E
:101050008A78C97802F00E0201F0010111440DF105
:1010600003080E18402700204146002202238DF875
:1010700003708DF8046002F047FD044601204146EC
:10108000002202238DF803708DF8046002F03CFD0D
:101090002106254608BF054600064FF002004146DE
:1010A0004FF000024FF0020308BF25468DF8037091
:1010B0008DF8046002F028FD29062C4608BF04467E
:1010C00000064FF0030041464FF000024FF00203CC
:1010D00008BF2C468DF803708DF8046002F014FDF3
:1010E0002106214608BF0146002808BF214602B05C
:1010F000BDE8F041C8B2704740F2F401C2F200010D
:101100000A78012A1EBF0121C8B270472DE9F041BB
:1011100082B0002818BF01204200CA710A794B79B9
:101120008F79097A22F01F0203F0180307F00407F1
:101130001A4401F001013A4411440DF1030841EA57
:101140004006442700204146002202238DF8037008
:101150008DF8046002F0D8FC0446012041460022CC
:1011600002238DF803708DF8046002F0CDFC210697
:10117000254608BF054600064FF0020041464FF0E5
:1011800000024FF0020308BF25468DF803708DF86A
:10119000046002F0B9FC29062C4608BF044600068C
:1011A0004FF0030041464FF000024FF0020308BF2A
:1011B0002C468DF803708DF8046002F0A5FC210622
:1011C000214608BF0146002808BF214602B0BDE8FD
:1011D000F041C8B270470000F0B581B00DF10304D2
:1011E000082600202146002201238DF8036002F02A
:1011F0008BFC054601202146002201238DF8036067
:1012000002F082FC29062F4608BF074600064FF071
:10121000020021464FF000024FF0010308BF2F46A5
:101220008DF8036002F070FC39063D4608BF0546A4
:1012300000064FF0030021464FF000024FF001037B
:1012400008BF3D468DF8036002F05EFC2906294682
:1012500008BF0146002808BF2946C8B201B0F0BD4A
:1012600080B54CF20001CFF6FF7141EA90210202F5
:1012700058BF810A084605F0ABF84FF0745105F0ED
:101280003BF980BD2DE9F04F85B00E46054623247D
:1012900000270DF10F010DF10A02002005238DF842
:1012A0000F400497CDF80B7002F02EFC80468DB3F2
:1012B000B8F1000F16D1DDF80B002978C2B29142C7
:1012C00010D16978C0F3072291420BD1010CAA78A2
:1012D000C9B28A4206D1E978000E814202D14FF0AC
:1012E000010901E04FF0000923208DF80F000020D4
:1012F0000490CDF80B000DF10F010DF10A02012051
:10130000052302F001FC00284ED0B8F1000F08BF01
:1013100080465FE0B8FA88F00DF10F0B0DF10A0A74
:101320004FEA5019012059465246052301968DF87F
:101330000F400497CDF80B7002F0E6FBB8F1000FF8
:10134000454608BF054600284FF002005946524660
:101350004FF0050304BF454609F102098DF80F401F
:101360000497CDF80B7002F0CFFB002D2E4608BF7E
:10137000064600284FF00300594652464FF0050339
:1013800004BF2E4609F104098DF80F400497CDF8EB
:101390000B7002F0B9FB002876D08046002E18BFF3
:1013A000B046019E74E000BFDDF80B002978C2B2A0
:1013B00091420FD16978C0F3072291420AD1010C02
:1013C000AA78C9B28A4205D1E978000E814208BFE5
:1013D00009F1020923208DF80F0000200490CDF8B8
:1013E0000B000DF10F010DF10A020220052302F09E
:1013F0008BFB28B1B8F1000F08BF804616E000BF94
:10140000DDF80B002978C2B291420FD16978C0F3A0
:10141000072291420AD1010CAA78C9B28A4205D1A9
:10142000E978000E814208BF09F1040923208DF8F4
:101430000F0000200490CDF80B000DF10F010DF10D
:101440000A020320052302F05FFB28B1B8F1000F68
:1014500008BF80461CE000BFDDF80B002978C2B24F
:10146000914215D16978C0F30722914210D1010C45
:10147000AA78C9B28A420BD1E978000E814208BF2E
:1014800009F1080904E000BFB046019E09F108090E
:10149000002E18BFA6F80090404605B0BDE8F08FBA
:1014A00070B582B040F27006C2F2000606F13C044C
:1014B00001AD20462946FEF79BFF2046FFF7FAFCC8
:1014C00006F108012846FFF7DDFEFFF785FE002044
:1014D0007080C6F80A0096F83F00012171703171E2
:1014E000FFF7F4FB406841F2597200EBC001CDF206
:1014F000B712A1FB022344F6D352C1F26202A0FB51
:101500000202580B42F2107399424FF0190138BF92
:10151000012001EB92113289B389C6E9080122EA60
:10152000030010F00F0008BF0F20F08102F024FA32
:1015300002F00AFA00F0A4FAB06202B070BD000036
:10154000FEE7000070470000EFF3108072B600BFA6
:10155000FEE70000014690F82100022816D1086835
:10156000D1E90FC3026822F00E020260026822F085
:1015700001020260012000FA03F2CCF8042081F895
:1015800021000020002281F8202070470420886379
:101590000120002281F820207047000090F82110DF
:1015A000022923D1026840F2040C1168C4F2020C33
:1015B00021F00E01116013682F21C4F202018A424A
:1015C00023F00103136015DD3023C4F202039A42B5
:1015D0001CD04423C4F202039A421BD05823C4F205
:1015E00002039A421CD14FF4803321E0042181632D
:1015F000012070470823C4F202039A420ED01C2334
:10160000C4F202039A420BD1102311E04FF480730D
:101610000EE000BF4FF480530AE000BF012307E053
:101620000CF168014FF080738A4208BF4FF48013B9
:101630000121CCF8003080F82110416B00220029F4
:1016400080F8202004BF0020704780B58847002024
:1016500080BD0000B0B5044600F012FA054640F225
:101660000000C2F200000078611C18BF044400BFF3
:1016700000F006FA401BA042FAD3B0BD2DE9F04FAE
:1016800083B00546A0F18040A0F584304FEAB02435
:10169000052C894606D346F62020C0F60000BD2161
:1016A00003F0F2FED9F800000021B1EB104F01D198
:1016B00080B230B946F62020C0F60000BE2103F00B
:1016C000E3FED9F804004FF6FF71C1F21001884221
:1016D0004FF6FF71C1F221010ADC122829D801213D
:1016E00001FA00F00F21C0F20601084228D120E0E3
:1016F00088420FDC0021C1F21101884220D0002174
:10170000C1F2120188421BD00021C1F2210188429E
:1017100016D00EE00021C1F22201884210D0002133
:10172000C1F2310188420BD00021C1F2320188425E
:1017300006D046F62020C0F60000BF2103F0A4FE2C
:10174000D9F80000002800F0778140F20C4C40F2FC
:10175000004E41F20041C4F2010CC4F2010EC4F289
:10176000010104224FF0000800264FF0000A8D42CC
:1017700008BF03220092019446E000BF41F200023C
:10178000C4F201029542009A08BF022208F00C0739
:101790000F24BC40A143BA40B308114340F82310C2
:1017A000D9F80400C102DEF8081054BF21EA0B0189
:1017B00041EA0B01CEF80810019CDCF8001082020F
:1017C00054BF21EA0B0141EA0B01CCF8001082035F
:1017D000DEF8041054BF21EA0B0141EA0B01C003FB
:1017E000CEF80410DEF8000054BF20EA0B0040EAF7
:1017F0000B00CEF80000D9F80000013630FA06F1EF
:1018000008F1040800F01881012101FA06F710EA36
:10181000070BF0D0052C0ED346F62020C0F60000B2
:10182000CD2103F031FE40F2004E40F20C4CC4F2E8
:10183000010EC4F2010CD9F804004FF6FF71C1F299
:101840001001884228DC122800F2BE80DFE800F098
:101850004A0A8A86BCBCBCBCBCBCBCBCBCBCBCBC54
:10186000BC6CA400D9F80CA0AAF101000328C0F0B8
:10187000AB8046F62020C0F60000D52103F004FE20
:1018800040F2004E40F20C4CD9F80CA0C4F2010E0C
:10189000C4F2010C98E000BF4FF6FF71C1F22101C4
:1018A00088420FDC0021C1F2110188421AD00021C8
:1018B000C1F21201884215D00021C1F221018842F3
:1018C00010D081E00021C1F2220188420AD000211B
:1018D000C1F23101884205D00021C1F232018842B3
:1018E00072D100BFD9F80800032810D346F6202093
:1018F000C0F60000F72103F0C7FD40F2004E40F2B1
:101900000C4CD9F80800C4F2010EC4F2010C38B135
:10191000012814BF6F612F614FF0080A54E000BF27
:101920004FF0040A50E000BFD9F80C00411E032913
:1019300010D346F62020C0F60000DC2103F0A4FD01
:1019400040F2004E40F20C4CD9F80C00C4F2010EEB
:10195000C4F2010C00F1040A36E000BF4FF0000AA7
:1019600032E000BFD9F80C00411E032910D346F61F
:101970002020C0F60000E32103F086FD40F2004E77
:1019800040F20C4CD9F80C00C4F2010EC4F2010C68
:1019900000F1080A18E000BFD9F80C00411E032925
:1019A00010D346F62020C0F60000EA2103F06CFDBB
:1019B00040F2004E40F20C4CD9F80C00C4F2010E7B
:1019C000C4F2010C00F10C0A28464146BBF5807FA9
:1019D00024BF0430203902680F238B409A430AFA4F
:1019E00001F11143016099F80700C0067FF503AFCC
:1019F00041F21801C4F20201086840F6000240F00A
:101A000001000860086826F0030100F00100029060
:101A10000298AEF57E704158C4F20102954209D099
:101A200040F60042C4F2010295427FF4A7AE0122C3
:101A3000ACE600BF0022A9E603B0BDE8F08F0000CD
:101A400070B516460C46054631B1022E0ED2002E58
:101A500008BF24042C6170BD46F62020C0F60000AB
:101A60004FF4EA7103F010FD022EF0D346F6202069
:101A7000C0F6000040F2D51103F006FD2C6170BDE8
:101A800040F2E850C2F200000068704740F20000E7
:101A900040F2E851C2F20000C2F2000100780A6888
:101AA000104408607047000080B542F20000C4F2A4
:101AB0000200016841F010010160032000F0A8F865
:101AC0000F2000F005F800F027F8002080BD00008E
:101AD00070B540F20006C2F2000640F2080132780A
:101AE000C2F200014FF47A730968B3FBF2F20446C4
:101AF000B1FBF2F1084601F07BF90F2C4FF0010524
:101B000008D838B94FF0FF3021460022002500F0F8
:101B10003FF87460284670BD82B041F21800C4F2EC
:101B200002000168022241F001010160016801F038
:101B3000010101910199416841F080514160406883
:101B400000F08050009000980420C4F20100016869
:101B500062F31A61016002B070470000B0F1FF3F0C
:101B60000EDD00F01F01012202FA01F11C2202EA3F
:101B7000D0004EF20012CEF200028150704700BF3A
:101B800046F65920C0F60000BD2103F07DBC0000E0
:101B900070B515460E46102A044606D346F659205F
:101BA000C0F60000A92103F06FFC102E06D346F604
:101BB0005920C0F60000AA2103F066FC4EF60C5036
:101BC000CEF2000001684FF0FF33C1F3022181F033
:101BD0000702042A28BF0422033903FA02F238BF9D
:101BE000002126EA02028A4003FA01F125EA0101F6
:101BF000114304F00F02043A104404F16042090159
:101C000002F56442002C48BF00F10C02117070BD57
:101C100010B504460338052806D346F65920C0F609
:101C20000000912103F030FC4EF60C50CEF2000083
:101C300001684FF6FF02114064F30A2141F0806110
:101C400041F0FD71016010BD002804BF0120704704
:101C50002DE9F04381B0044600780D46000700F0FE
:101C6000B380032D07D346F6E810C0F6000040F21B
:101C7000373103F009FC42F20008C4F20208D8F838
:101C8000000000F0070085420DD9D8F8000020F0D0
:101C900007002843C8F80000D8F8000000F007004B
:101CA000A84240F0B180206841F204098107C4F2E3
:101CB00002091FD5410705D5D9F8001041F4E061AC
:101CC000C9F80010000705D5D9F8000040F46050AD
:101CD000C9F80000A0686FF0070101EB3011082976
:101CE00080F0E280D9F8001021F0F0010843C9F833
:101CF00000002068C00773D1D8F8000000F007008A
:101D000085420CD2D8F8000020F007002843C8F81C
:101D10000000D8F8000000F00700A84274D1206845
:101D200041071AD5E0686FF0030101EB3021042967
:101D30000BD34FEA302141B146F6E810C0F600005F
:101D400040F2A23103F0A0FBE068D9F8001021F4C2
:101D5000E0610843C9F80000206800071AD520692F
:101D60006FF0030101EB302104290BD34FEA30213E
:101D700041B146F6E810C0F6000040F2A93103F088
:101D800083FB2069D9F8001021F4605141EAC000BA
:101D9000C9F80000D9F8002002F00C00082841F230
:101DA0000020C0F27A0063D146F64A13C2F38341A1
:101DB000C0F60003595CD2034ED440F60010C0F2C6
:101DC0003D00484354E000BF46F6E810C0F600006E
:101DD00040F2363103F058FB032DBFF444AF4AE71D
:101DE0006068032808D346F6E810C0F600004FF4F8
:101DF000597103F049FB606859F8041C022807D0A8
:101E0000012825D1890305D4012001B0BDE8F08364
:101E10008901F9D5D9F8001021F003010843C9F868
:101E20000000FFF72DFE064641F28837D9F8000082
:101E3000616800F00C00B0EB810F3FF45DAFFFF77D
:101E40001FFE801BB842F1D9032001B0BDE8F0832A
:101E50008907D9D5DEE700BFD9F8002046F6381348
:101E6000C2F34042C0F600039A5C4843B0FBF2F074
:101E7000D9F8001046F62012C1F30311C0F6000293
:101E8000515C40F2080220FA01F140F20400C2F273
:101E900000000068C2F200021160FFF719FE002086
:101EA00001B0BDE8F08300BF4FEA301100293FF4D4
:101EB00019AF46F6E810C0F6000040F25D3103F0BD
:101EC000E3FAA0680EE7000040F2080041F20401C6
:101ED000C2F20000C4F202010068096846F630123E
:101EE000C1F30221C0F60002515CC84070470000F7
:101EF00040F2080041F20401C2F20000C4F2020103
:101F00000068096846F63012C1F3C221C0F600022B
:101F1000515CC84070470000002804BF0120704792
:101F20002DE9F04182B00446006858B110F00F016D
:101F300008D146F6E810C0F6000040F2651103F043
:101F4000A3FA206841F20006C007C4F2020612D0CC
:101F50006068002818BFB0F5803F40F007817068C6
:101F600000F00C00042815D13068800303D56068A8
:101F7000002800F0AF812078800752D52069022820
:101F800020D26069202828D2706810F00C0F30D160
:101F900039E000BF706800F00C00082802D17068BA
:101FA000C003E1D461683068002900F0F581B1F523
:101FB000A02F00F0E981B1F5803F40F0038240F4AA
:101FC000803005E246F6E810C0F6000040F29F11AE
:101FD00003F05AFA60692028D6D346F6E810C0F616
:101FE00000004FF4D07103F04FFA706810F00C0F3E
:101FF00009D0706800F00C00082840F08D807068EF
:10200000C00300F189803068800703D5206901286A
:1020100040F060813068616920F0F80040EAC1005A
:102020003060207800071FD42078400742D4E06950
:10203000032808D346F6E810C0F6000040F2AD21B0
:1020400003F022FAE069002800F03F81716801F096
:102050000C01082940F0B080012840F02B810120BC
:1020600002B0BDE8F08100BFA069022808D346F69F
:10207000E810C0F600004FF4F07103F005FAA06913
:10208000002800F081806020C4F242200121C0F8C5
:102090002014FFF7F5FC0546706A800700F1C08048
:1020A000FFF7EEFC401B0228F6D9032002B0BDE882
:1020B000F08100BFE068052800F2EE80012101FAFE
:1020C00000F010F0230F00F0E780F0695FEAC0082D
:1020D00008D4F06940F08050F061F06900F0805061
:1020E0000090009847F20007C4F200073868C00566
:1020F0002ED4386840F480703860FFF7C1FC054684
:102100003868C00524D4FFF7BBFC401B6428F7D90E
:10211000032002B0BDE8F0812069002840F2600091
:10212000C4F2422000F0A680012140F8601CFFF7B5
:10213000A7FC0546306880073FF56CAFFFF7A0FCB1
:10214000401B0228F6D9032002B0BDE8F08100BF91
:10215000E168306A002900F0DD80052900F0D280B6
:10216000012940F0EF8040F00100F1E0B0F5A02F30
:102170003FF4F5AE46F6E810C0F6000040F26B11F1
:1021800003F082F9EBE600BF6020C4F24220002198
:10219000C0F82014FFF774FC054600BF706A800782
:1021A0007FF542AFFFF76CFC401B0228F6D90320F5
:1021B00002B0BDE8F08100BF022840F08F80206AA5
:1021C00040F48030B0F5803F07D046F6E810C0F606
:1021D000000040F2B62103F057F9606A4FEAB040C0
:1021E0000F2807D346F6E810C0F6000040F2B721EA
:1021F00003F04AF96027C4F2422700203860FFF755
:102200003FFC05463068800140F1F480FFF738FC60
:10221000401B02284FF00300F4D902B0BDE8F08162
:1022200040F20800C2F20000006844F6D351C1F247
:102230006201A0FB0101480A019000BF00BF0198A4
:10224000411E002801913FF4EFAE00BF0198411EEE
:10225000002801913FF4E8AE00BF0198411E00281C
:1022600001913FF4E1AE00BF0198411E00280191A9
:10227000E4D1D9E6002140F8601CFFF701FC0546D7
:10228000306880077FF5CDAEFFF7FAFB401B0228D0
:102290004FF00300F4D9C0E746F6E810C0F600009E
:1022A00040F20F2103F0F0F8F0695FEAC0087FF513
:1022B00010AF17E77068216A00F480328A4209D1B2
:1022C000616A00F47010884204D1002002B0BDE8B9
:1022D000F08100BF012002B0BDE8F0816020C4F2AF
:1022E000422000210160FFF7CBFB044630688001EB
:1022F000EBD5FFF7C5FB001B02284FF00300F5D913
:102300008BE700BF40F004003062306A40F001000B
:102310001EE000BF20F001003062306A20F00400AF
:102320003062FFF7ADFB054641F28837306A80071F
:1023300020D5FFF7A5FB401BB8424FF00300F5D9AD
:102340006BE700BF20F001003062306A20F004002B
:102350003062FFF795FB054641F28837306A800707
:1023600008D4FFF78DFB401BB842F7D9032002B019
:10237000BDE8F081B8F1000F3FF559AEF06920F0EB
:102380008050F06153E600BF40F480203060306838
:1023900040F480301CE000BF20F4803030603068B2
:1023A00020F480203060FFF76BFB05463068800327
:1023B0007FF5E1ADFFF764FB401B64284FF003009D
:1023C000F4D92AE720F480303060306820F480208F
:1023D0003060FFF755FB0546306880033FF5CBAD15
:1023E000FFF74EFB401B6428F6D9032002B0BDE87E
:1023F000F08100BF206AB0F5803F14D1A06840F49E
:102400000031B1F5003F08D046F6E810C0F60000F4
:1024100040F2CD2103F038F8A068716821F4003152
:1024200008437060206A7168626A21F4741108437D
:102430001043706001203860FFF722FB044600BFA4
:10244000306880013FF541AFFFF71AFB001B0228FF
:102450004FF00300F4D9E0E610B584B040F2080173
:10246000C2F20001096841F6F112C0F27652A1FBF6
:102470000212510A642251430291029904460391C7
:102480000168486820F0200048604868000607D4CA
:102490004868400637D44868800768D49CE000BF8D
:1024A00043F66900C0F600006064039810B3039817
:1024B0000138039094F8510007281FD00398C8B141
:1024C00003980138039094F85100072816D0039818
:1024D00080B103980138039094F8510007280DD07B
:1024E000039838B103980138039094F851000728F5
:1024F000DBD103E0606D40F040006065029803901E
:1025000048684006C7D543F2D570C0F60000206485
:10251000039818B303980138039094F851000728E2
:1025200020D00398D0B103980138039094F851005B
:10253000072817D0039888B103980138039094F8BE
:10254000510007280ED0039840B10398013803903A
:1025500094F851000728DBD104E000BF606D40F023
:1025600040006065029803904868800734D5A06CED
:1025700090B300214163FEF7EDFF00281CBF40200F
:1025800060652168486820F0020048600398F8B14F
:10259000039801380390886880071DD40398B8B168
:1025A0000398013803908868800715D4039878B1A0
:1025B000039801380390886880070DD4039838B1D8
:1025C00003980138039088688007DFD504E000BFD6
:1025D000606D40F0400060654868C00712D0E06C54
:1025E00080B100214163FEF7B5FF00281CBF4020E9
:1025F00060652168086820F040000860486820F0A5
:10260000010048600023E387E386606D01224028D3
:102610004FF001001CBF636500200193CB6801935C
:1026200089680191019984F8512004B010BD00001F
:1026300090F8510070470000002804BF0120704747
:1026400010B50446006843F60001C4F20001884258
:102650000DD043F20001C4F20101884207D046F6D2
:10266000B010C0F600004FF4AC7102F00DFF6068CE
:1026700050B1B0F5827F07D046F6B010C0F600002A
:1026800040F2591102F000FFA068002818BFB0F511
:10269000806F6DD1E06840F40060B0F5006F07D046
:1026A00046F6B010C0F6000040F25B1102F0ECFEFE
:1026B000A069002818BFB0F5007F67D1E0694FEA34
:1026C000F000082808D2206A40F08000802810D14D
:1026D000606AC0B932E000BF46F6B010C0F6000034
:1026E00040F25D1102F0D0FE206A40F080008028A8
:1026F000EED046F6B010C0F600004FF4AF7102F015
:10270000C3FE606AD0B146F6B010C0F6000040F2D9
:10271000611102F0B9FE606A80B1E0694FEAF00031
:10272000082807D346F6B010C0F6000040F2731137
:1027300002F0AAFE0020C4E904004EE0206940F047
:102740000200022830D16069022838D26068B0F5F2
:10275000827F40D1E0694FEAF00008283DD346F679
:10276000B010C0F6000040F2691102F08DFE34E0B6
:10277000B0F5004F3FF48EAF46F6B010C0F6000043
:102780004FF4AD7102F080FE84E700BFB0F5802FFA
:102790003FF494AF46F6B010C0F600004FF4AE71AF
:1027A00002F072FE8AE700BF46F6B010C0F60000E5
:1027B0004FF4B27102F068FE60690228C6D346F693
:1027C000B010C0F6000040F2651102F05DFE6068D6
:1027D000B0F5827FBED00020E0610020A06294F8B6
:1027E000511029B984F85000204600F03FF800202D
:1027F000022184F85110D4E9001ED4E9023C0A6891
:1028000003F4044322F040020A600EF4827203EBE8
:10281000020E0CF4006322690EEB030C636902F0F4
:102820000202D4F818E0944403F00103E2699C44E6
:102830000EF400739C4402F03802236A9444A26AA6
:1028400003F0800343EA0C0302F400521A430A60C7
:10285000042202EA1E424A60CA6922F40062CA6186
:102860000121606584F8511010BD0000F0B585B0FD
:1028700040F60004C4F20104006804F5205100266B
:1028800088420496CDE90266019601D005B0F0BDFC
:1028900041F21800C4F20200016801AD41F4805118
:1028A00001600168022701F48051009100990168DC
:1028B00041F0040101600068294600F00400009026
:1028C0000098A02001900320049020460297FEF774
:1028D000D5FE402001A9C1C120462946FEF7CEFE03
:1028E00005B0F0BD2DE9F04182B0044680689846FD
:1028F00040F400401546B0F5004F0F4606D1FFF7F3
:10290000BFF894F8511001290ED01BE046F6B01024
:10291000C0F6000040F2213102F0B6FDFFF7B0F83A
:1029200094F8511001290DD10646002F4FF00100F7
:1029300018BF002D02D102B0BDE8F08194F850001C
:10294000012803D1022002B0BDE8F081012084F803
:1029500050000320002184F8510061652763A5869B
:10296000E586A163A187E187A0682164B0F5004FE7
:102970002068616407D1016821F0400101600168AD
:1029800041F4804101600168490603D4016841F0C7
:102990004001016061686B1EE268B1FA81F1B3FA2F
:1029A00083F349095B09B2F5006F41EA03013BD1AA
:1029B00031B137F8021BC1602763E08E0138E08631
:1029C000E08E002872D018F101000CD11BE000BF8E
:1029D000216B31F8022BC2602163E08E0138E08662
:1029E000E08E002862D0206881688907F0D4FFF764
:1029F00047F8801B4045F3D33AE000BFFFF740F8AB
:102A0000E08E002852D0206881688907F6D5216BB6
:102A100031F8022BC2602163E08E0138E086E08E3F
:102A20000028F0D142E000BF39B139780173206B42
:102A300001302063E08E0138E086E08EB0B318F1FB
:102A400001000CD122E000BF216B09780173206BDB
:102A500001302063E08E0138E086E08E30B32068DC
:102A600081688907F0D4FFF70BF8801B4045F4D349
:102A7000012084F85100002084F85000032002B0A7
:102A8000BDE8F081FEF7FCFFE08E78B12068816838
:102A90008907F7D5216B09780173206B013020631A
:102AA000E08E0138E086E08E0028EFD1204602213A
:102AB00001224346009601F0DFF838B92046802114
:102AC00000224346009601F0D7F828B1606D40F02F
:102AD0002000606520206065A06838B90020019062
:102AE0002068C1680191806801900198012084F8F4
:102AF0005100002084F85000606D002818BF0120AC
:102B000002B0BDE8F08100002DE9F04383B0044637
:102B100080681E4615460F4638B146F6B010C0F61E
:102B200000004FF4956102F0AFFCFEF7A9FF94F8A6
:102B300051108146012909D1002F4FF0010018BF23
:102B4000002D0FD103B0BDE8F08300BF6068B0F581
:102B5000827F0DD104294FF00200F3D1A168002932
:102B6000EAD0EFE7002EEDD094F85000012803D111
:102B7000022003B0BDE8F083012084F8500094F8EF
:102B80005100002104281CBF052084F85100616514
:102B9000A563E687A6872763E6862068A686216464
:102BA00061640168490603D4016841F04001016095
:102BB0006168731EE268B1FA81F1B3FA83F3DDF85C
:102BC000288049095B09B2F5006F41EA030165D12C
:102BD00031B137F8021BC1602763E08E0138E0860F
:102BE000012518F1010032D102E000BFFEF748FFD5
:102BF000E08E18B9E08F002800F0B8802068816866
:102C000089070CD5E18E51B1012D08D1216B00252A
:102C100031F8022BC2602163E18E0139E1868168BF
:102C2000C907E3D0E18F0029E0D0C068A16B01257E
:102C300021F8020BA163E08F0138E087D6E700BFDF
:102C4000FEF71EFFA0EB0900404580F0AF80E08E4C
:102C500018B9E08F002800F0898020688168890712
:102C60000CD5E18E51B1012D08D1216B002531F831
:102C7000022BC2602163E18E0139E1868168C907B8
:102C8000DED0E18F0029DBD0C068A16B012521F8DF
:102C9000020BA163E08F0138E087D1E739B13978C1
:102CA0000173206B01302063E08E0138E08601253E
:102CB00018F1010032D101E0FEF7E2FEE08E10B91A
:102CC000E08F002852D02068816889070ED5E18EF8
:102CD00061B1012D0AD1216B002509780173216BA7
:102CE000206801312163E18E0139E1868168C907DD
:102CF000E2D0E18F0029DFD0C068A16B0125087008
:102D0000A06B0130A063E08F0138E087D4E700BFFB
:102D1000FEF7B6FEA0EB0900404547D2E08E08B9A9
:102D2000E08F18B32068816889070ED5E18E61B104
:102D3000012D0AD1216B002509780173216B2068D0
:102D400001312163E18E0139E1868168C907DFD055
:102D5000E18F0029DCD0C068A16B01250870A06B51
:102D60000130A063E08F0138E087D1E720460221DF
:102D700001224346CDF8009000F07EFF40B9204686
:102D8000802100224346CDF8009000F075FFB8B1D5
:102D9000606D40F02000606520206065002084F8B0
:102DA0005000012003B0BDE8F08300BF012084F88B
:102DB0005100002084F85000032003B0BDE8F083E8
:102DC000A06838B9002002902068C168029180682C
:102DD00002900298012084F85100002084F85000ED
:102DE000606D002818BF012003B0BDE8F08300002B
:102DF000411E0020B0EB116F1CBF012070474EF246
:102E00001002CEF2000251604EF62351CEF20001C4
:102E1000F0230B700721906011607047704700002D
:102E2000016843F60002C4F20102914218BF7047E4
:102E300010B582B0002201920B6840F20414019395
:102E40004B68C2F200040193019B01920B6801934D
:102E50004B680193019B01920B6801934B680193AE
:102E6000019B01920B6801934968019101994264A9
:102E700040F24C20E270211DC2F20000012200F05D
:102E80008DFBB0FA80F04009E07002B0BDE8104060
:102E900070470000B0B582B001680A68CC684B6921
:102EA00002F02F05202D04F0200505D125B102B038
:102EB000BDE8B04002F0D8B95FEA027C1EBF03F063
:102EC000010E04F4907313EB0E0341D1036BD5068E
:102ED00018D5012B16D114F0100313D00022019243
:102EE0000A6801924A680192019A496949064BD4DD
:102EF000818DC28DC38D002B18BF914240F0F481AB
:102F000002B0B0BD13062DD514F080032AD090F87E
:102F10004120212AF4D18268B2F5805F03D1026991
:102F2000002A00F06782026A531C036212784A602A
:102F3000C28C013A1304C284E2D1C86820F0800038
:102F4000C860C86840F04000C86002B0B0BD00BFB3
:102F5000D30718BF14F4807340F0D080530700F1FA
:102F6000D380D8E05206CBD514F04002C8D0CA684E
:102F700022F04002CA60202180F8411002B0BDE872
:102F8000B04000F079BB00BFC16B0A68526893B2D1
:102F9000002BB5D0858DAB42B2D2C285896920297C
:102FA00000F0A180016851E8031F026821F48071DC
:102FB00042E80313DBB1016851E8031F026821F402
:102FC000807142E8031393B1016851E8031F02685E
:102FD00021F4807142E803134BB1016851E8031FEB
:102FE000026821F4807142E80313002BDAD10168F2
:102FF00051E8051F026821F0010142E80513C3B33F
:10300000016851E8051F026821F0010142E805133B
:103010007BB3016851E8051F026821F0010142E815
:10302000051333B3016851E8051F026821F001015F
:1030300042E80513002BDAD11BE000BF016851E81C
:10304000051F026821F0400142E80513DBB1016869
:1030500051E8051F026821F0400142E8051393B1D1
:10306000016851E8051F026821F0400142E805139C
:103070004BB1016851E8051F026821F0400142E8A8
:103080000513002BDAD1202180F8421000210163C2
:10309000016851E8031F026821F0100142E80313A0
:1030A000DBB1016851E8031F026821F0100142E81A
:1030B000031393B1016851E8031F026821F0100166
:1030C00042E803134BB1016851E8031F026821F085
:1030D000100142E80313002BDAD1C16B0446084605
:1030E000FEF738FA204602214163818DC28D891A8C
:1030F00089B202B0BDE8B040FFF790BE436C43F028
:1031000001034364530706D5BEF1000F03D0436C9F
:1031100043F002034364930706D5BEF1000F03D0CA
:10312000436C43F004034364BCF1000F06D55EEA30
:10313000050303D0436C43F008034364436C002B46
:103140003FF4DEAE920605D525B1044602F08CF8B8
:10315000216820464969426C01F0400102F00802F2
:10316000891800F0B98000BF016851E8031F0268A8
:1031700021F4907142E80313BBB3016851E8031FC7
:10318000026821F4907142E8031373B3016851E8B7
:10319000031F026821F4907142E803132BB3016806
:1031A00051E8031F026821F4907142E80313002BD9
:1031B000DAD11AE0016851E8051F026821F0010127
:1031C00042E80513DBB1016851E8051F026821F0F0
:1031D000010142E8051393B1016851E8051F026837
:1031E00021F0010142E805134BB1016851E8051FC8
:1031F000026821F0010142E80513002BDAD1016BCE
:10320000012924D1016851E8031F026821F010014F
:1032100042E80313DBB1016851E8031F026821F0A3
:10322000100142E8031393B1016851E8031F0268DB
:1032300021F0100142E803134BB1016851E8031F6C
:10324000026821F0100142E80313002BDAD120219B
:1032500080F842100021016301684969490640F184
:10326000C380016851E8051F026821F0400142E86F
:103270000513DBB1016851E8051F026821F0400128
:1032800042E8051393B1016851E8051F026821F077
:10329000400142E805134BB1016851E8051F02687F
:1032A00021F0400142E80513002BDAD1C16B00295F
:1032B00000F09A8044F61912C0F60002044608464F
:1032C0004A63FEF76BF900283FF41AAEE06B416BDE
:1032D00002B0BDE8B04008470446FFF7A1FD00205A
:1032E000606402B0B0BD00BF891A00BF026852E836
:1032F000032F036822F4907243E80325BDB30268EC
:1033000052E8032F036822F4907243E8032575B353
:10331000026852E8032F036822F4907243E8032501
:103320002DB3026852E8032F036822F4907243E839
:103330000325002DDAD11AE0026852E8052F036850
:1033400022F0010243E80525DDB1026852E8052FAD
:10335000036822F0010243E8052595B1026852E8AE
:10336000052F036822F0010243E805254DB10268EC
:1033700052E8052F036822F0010243E80525002DDD
:10338000DAD1202280F8422000220263026852E84B
:10339000032F036822F0100243E80325DDB1026821
:1033A00052E8032F036822F0100243E8032595B189
:1033B000026852E8032F036822F0100243E8032555
:1033C0004DB1026852E8032F036822F0100243E86F
:1033D0000325002DDAD1022289B2426302B0BDE892
:1033E000B040FFF71BBD00BF02B0BDE8B040FFF723
:1033F00017BD00BF026A32F8023B6FF35F234B60D8
:10340000026295E5002804BF0120704710B504460C
:103410008069216810B344F20042C4F20002914274
:1034200014D044F60002C4F2000291420ED043F6DA
:103430000002C4F20102914208D046F69420C0F680
:1034400000004FF4B77102F01FF8A0694FEA302076
:1034500004281DD340F26F1114E000BF44F2004075
:10346000C4F20000814213D044F60000C4F2000010
:1034700081420DD043F60000C4F20100814207D022
:1034800040F2731146F69420C0F6000001F0FCFFF4
:10349000A06840F48050B0F5805F23D194F84100DB
:1034A00060B3242084F841002068C16821F40051F1
:1034B000C160204601F058FF2068016921F4904165
:1034C0000161416921F02A014161C16841F4005163
:1034D000C16000202021606484F8411084F842100B
:1034E000606310BD46F69420C0F6000040F27511EE
:1034F00001F0CAFF94F841000028D2D1002084F8DE
:103500004000204600F002F8CBE7000070B586B01E
:1035100040F60004C4F20104006804F5405100269E
:1035200088420596CDE90366029601D006B070BDCB
:1035300041F21800C4F20200016802AD41F480417A
:103540000160016801F4804101910199016841F035
:10355000040101600068294600F004000190019810
:103560004FF4007002900220039003200590204643
:10357000FEF784F84FF48060CDE902060120049044
:1035800020462946FEF77AF8252002210022FEF780
:10359000FFFA2520FEF7E2FA06B070BD90F842303F
:1035A000202B07D100294FF0010318BF002A05D1B5
:1035B0001846704702231846704700BF0023036374
:1035C000816222218285C285436480F842100169AC
:1035D000006819B1C16841F48071C160416941F06E
:1035E00001014161C16841F02001C1601846704786
:1035F000006843F60001C4F20101884218BF704719
:1036000010B540F20414C2F2000414F8040F0021B3
:1036100004F8011C01F0CEF940F24C20C2F2000087
:1036200021460122FFF7BAFFB0FA80F0400904F802
:10363000010CBDE81040704790F84130202B07D1B5
:1036400000294FF0010318BF002A05D11846704722
:1036500002231846704700BF0162002321218284A3
:10366000C284436480F841100068C16841F0800161
:10367000C160184670470000006843F60001C4F2BC
:103680000101884218BF704710B540F20414C2F21D
:103690000004208A618A08446FF35F2020820020A2
:1036A0006071607910B1BDE8104070472089218AAF
:1036B0008842F8D02089218A40F2E83288428CBFC3
:1036C00020894FF40070218AC2F20002401A0121C1
:1036D00060826171218A114482B240F24C20C2F2B0
:1036E0000000FFF7A9FF00281CBF00206071BDE8A3
:1036F00010407047FEE7000083B041F21800C4F2AA
:103700000200016841F020010160016801F0200120
:1037100002910299016841F004010160016801F021
:10372000040101910199016841F0080101600068FC
:1037300000F008000090009803B000F053B90000BA
:1037400010B540F2F41043F20001C2F20000C4F2DE
:1037500001014FF4827200234FF0010C4FF4007E00
:10376000182480E80E000A21C0E90333C0E905CE21
:10377000C461C0E90833C0E90A31FEF75DFF0028E3
:1037800008BF10BDBDE81040FDF7DEBE80B540F2B9
:103790004C2043F60001C2F20000C4F201010023F4
:1037A0004FF00C0C4FF4E13280E80E00C0E9033317
:1037B000C0E905C3C361FFF725FE002808BF80BD2F
:1037C000BDE88040FDF7C0BEFEE70000FEE7000058
:1037D0007047000082B00021019140F20801C2F25E
:1037E0000001096841F6F112C0F27652A1FB021203
:1037F000510A6422514300910099F9B100990139AD
:10380000009101688A6892071DD4009AB2B1009AAB
:10381000013A00928A68920715D4009A72B1009A10
:10382000013A00928A6892070DD4009A32B1009A48
:10383000013A00928A689207DED504E00168426D81
:1038400042F0400242650A6822F040020A604A687B
:1038500022F0E0024A60C96801910199072180F8CD
:10386000511002B07047000001684A6822F08002DF
:103870004A600A6822F040020A60072180F851106D
:1038800070470000002808BF7047FDF7E3BE000046
:10389000002808BF704781B040F2EC01C2F200017D
:1038A000497819B340F20801C2F2000109684DF6E7
:1038B0008362C4F21B32A1FB021241F20401CEF278
:1038C0000001930C0A6858430B689B1A83420BD281
:1038D0000B689B1A834207D20B689B1A834203D260
:1038E0000B689B1A8342EFD301B0704740F2080186
:1038F000C2F20001096849F68172C1F25E62A1FB61
:103900000212012101EB92414843009000980028E7
:10391000EAD000BF00980138009000980028E3D05A
:1039200000980138009000980028DDD000980138F8
:10393000009000980028D7D0009801380090009897
:103940000028E7D1D0E7000040F2EC00C2F200000E
:10395000002101707047000040F2EC00C2F200004C
:103960004068704740F60800C4F2010000680F216B
:1039700021EA00007047000010F00F001EBF40F267
:103980000C01C2F2000108807047000040F60800F8
:10399000C4F2010040F20C010068C2F20001098883
:1039A0004FF6F0721043084206D040F2EC01C2F22A
:1039B000000100200870704740F2EC01C2F20001E3
:1039C000087800284FF0010018BF704708704A6857
:1039D00001324A607047000040F2E430C2F2000059
:1039E000006870472DE9F04786B0002741F21800C3
:1039F000CDE90477CDE90277C4F202000168022222
:103A000041F004010160016840F6004801F0040142
:103A1000019101990168C4F2010841F008010160B7
:103A2000016841F2040601F0080101910199016861
:103A3000CEF2000641F00101016000684FF00F096D
:103A400000F00100019001980420C4F20100016817
:103A50004FF0010A62F31A61016040460F21012212
:103A6000FDF7EEFF02AD032440462946CDE9029A58
:103A700004970594FDF702FEA8F580602946CDE97C
:103A80000297CDF810A0FDF7F9FD40F20C00C2F24C
:103A90000000A0F8009040F2EC00C2F200004EF6E8
:103AA000FC5107704760CEF200010A6842F0807254
:103AB0000A60376056F8041C40F2E73241F0010119
:103AC00046F8041C316800BF33688B420CD1336860
:103AD0008B4209D133688B4206D133688B4203D1C4
:103AE000944204F10404EFD3591A18BF0121417024
:103AF00006B0BDE8F087000040F60040C4F20100C7
:103B00000F210122FDF79CBF2DE9F04383B004464D
:103B100003284FF0010000F2A780002900F0A480E4
:103B20001D46002B00F0A08040F2F410C2F200000D
:103B300016468946FEF77CFD01281FD040F2F41797
:103B4000C2F200073846FEF773FD012805D040F2A7
:103B5000F410C2F20000FEF77FFC3868016821F023
:103B60004001016000210191C268019282680192C6
:103B7000019A7965016841F040010160012040F639
:103B80000048A040C4F2010887B2404639460022EE
:103B9000FDF756FF00BF00BF00BF00BF00BF00BF62
:103BA00000BF00BF76B140F2F4104FF0020CC2F239
:103BB0000000494632462B46CDF800C0FEF7A4FF70
:103BC00009E000BF40F2F410C2F2000049462A4664
:103BD0000223FEF787FE00BF00BF00BF00BF00BF8B
:103BE00000BF054600BF40463946012200BFFDF731
:103BF00027FF00BF00BF00BF00BF00BF00BF00BF66
:103C000000BFADB340F2E430C2F200000168013100
:103C1000016040F20E00C2F20000047040F2F414A1
:103C2000C2F200042046FEF703FD012805D040F251
:103C3000F410C2F20000FEF70FFC2068032D0168AB
:103C400021F0400101604FF000010291C268029230
:103C500082680292029A6165016841F04001016048
:103C60004FF0030008BF022003B0BDE8F08300BF9F
:103C7000002003B0BDE8F0832DE9F04381B0089C3B
:103C8000984615460E468146FDF7FAFE201A00EBCF
:103C90000804FDF7F5FE40F20801C2F200010968D0
:103CA000C1F3CB3161430091D9F800108A683240EA
:103CB000921BB2FA82F2520995423DD0074618F1A2
:103CC000010031D0FDF7DCFEC01BA04238D20098C5
:103CD00000990028A1F101010091D9F8001089682C
:103CE00008BF044601EA0600801BB0FA80F04009D4
:103CF0008542E7D120E000BF88683040801BB0FAE1
:103D000080F04009854217D088683040801BB0FAA7
:103D100080F0400985420FD088683040801BB0FA9F
:103D200080F04009854207D088683040801BB0FA97
:103D300080F040098542DFD1002001B0BDE8F0836A
:103D4000D9E900014268B1F5827F22F0E0024260C9
:103D50000BD1D9F80810B1F5004F02D0B1F5806F42
:103D600003D1016821F040010160D9F82810B1F5B4
:103D7000005F07D1016821F400510160016841F43E
:103D800000510160012089F85100002089F850009D
:103D9000032001B0BDE8F08370470000FDF776BE58
:103DA00070470000002B08BF7047F0B581B0054692
:103DB00000200E4683E823000021D8601882CCF250
:103DC000202130461C46174602F0DDF978B9002163
:103DD000C4F2FA21304602F0CFF940B10120CFF60B
:103DE000807001213844CFF60071884206D8012046
:103DF000207401B0BDE8F040704700BF46F20001FA
:103E0000C4F26A71284602F0A9F90028EFD148F2FD
:103E10000001CCF23B61284602F0A7F90028E6D069
:103E2000304600F005F906462846314602F020F9F2
:103E300041F60001CCF2B8510546E66002F0A3F964
:103E400046F2006100281CBF41F60005CCF2B855CF
:103E5000C4F25671284602F081F900281CBF46F2D0
:103E60000065C4F256752846002102F07EF900284C
:103E700042D148F6FA21C9F22421284602F03CFB3F
:103E800042F2DB41C9F64A1102F0F2F8294602F08B
:103E900033FB48F63861C9F6CC7102F0E9F82946DF
:103EA00002F02AFB44F29F31CAF2D75102F0E0F847
:103EB000294602F021FB4BF2A701CAF67C3102F041
:103EC000D7F8294602F018FB4EF27A51CBF2940152
:103ED00002F0CEF8294602F00FFB48F65811CBF25B
:103EE0009C5102F0C5F8294602F006FB43F6940106
:103EF000C3F6CE4153E000BF44F60001C4F2A16115
:103F0000284602F040F9002850D04EF26F51C8F216
:103F10005F51284602F0F0FA4AF28D01C0F6AB512B
:103F200002F0A6F8294602F0E7FA48F2CD51C9F2AC
:103F30005A5102F09DF8294602F0DEFA42F28771EA
:103F4000C1F6944102F094F8294602F0D5FA48F6F9
:103F50004401CAF2623102F08BF8294602F0CCFA31
:103F600043F64561C2F6BB1102F082F8294602F021
:103F7000C3FA49F67041CAF6897102F079F8294608
:103F800002F0BAFA4CF66431C3F2A83102F070F8CC
:103F9000294602F0B1FA47F60441C3F6CD4102F0DA
:103FA00067F80146284602F0A7FA39E040F63421C6
:103FB000C9F21A51284602F09FFA44F2CB41C1F6E9
:103FC000266102F055F8294602F096FA41F2DB41EB
:103FD000CAF28B6102F04CF8294602F08DFA45F2E4
:103FE0006771C2F6706102F043F8294602F084FA64
:103FF0004EF63251CBF2DC5102F03AF8294602F08B
:104000007BFA4DF68C01C3F6455102F031F8294692
:1040100002F072FA4CF64961CCF2033102F028F852
:1040200020600120607401B0BDE8F04070470000DE
:10403000B0B50021CCF28731044602F0A4F848F272
:10404000000100281CBF0024CCF28734C4F2AB412D
:10405000204602F083F800281CBF48F20004C4F296
:10406000AB442046002102F080F800285ED14DF6D6
:104070000B51C9F69D11204602F03EFA4DF64C1147
:10408000C9F6BB6101F0F4FF214602F035FA4CF6A7
:104090005441CAF2403101F0EBFF214602F02CFA04
:1040A00040F2D941CAF2607101F0E2FF214602F00C
:1040B00023FA49F68001CAF6213101F0D9FF2146E1
:1040C00002F01AFA47F23941CAF6946101F0D0FFC2
:1040D000214602F011FA47F6C001CBF2AB1101F014
:1040E000C7FF214602F008FA46F6F001CBF2B041D4
:1040F00001F0BEFF214602F0FFF942F6A901C3F22A
:10410000C67101F0B5FF214602F0F6F949F275617A
:10411000C3F6215101F0ACFF214602F0EDF9002178
:10412000C4F27A4102F0E8F9B0BD00BF4CF23B2185
:10413000C9F26F41204602F0DFF94EF2A651C1F6F6
:10414000EA2101F095FF214602F0D6F940F25841EC
:10415000CAF2BD0101F08CFF214602F0CDF94AF20E
:104160001701C2F2216101F083FF214602F0C4F978
:104170004DF2BE41CAF61D3101F07AFF214602F030
:10418000BBF940F62641C2F6AF7101F071FF21463E
:1041900002F0B2F949F26451CBF2D53101F068FF77
:1041A000214602F0A9F94AF6A861C3F29B7101F019
:1041B0005FFF214602F0A0F946F6D731C3F61F5142
:1041C00001F056FF214602F097F942F6BE61CBF6A8
:1041D000904101F04DFF4EF6EC710546CCF2FD2109
:1041E000204601F045FF42F60671CBF6F801044681
:1041F00002F082F90146204602F07EF901F07EFECF
:104200004EF24C31C3F6F25102F076F9294601F034
:104210002FFF0021C4F27A4102F06EF9B0BD000018
:104220002DE9F04F81B041F6000446F200654CF6EE
:10423000CD4A4FF000080FF2B0690FF2C46BCCF218
:10424000B854C4F25675C3F64C6A00BF59F80860FA
:104250003046FFF7EDFE5BF80810074602F052FA11
:1042600020F000404FF07E5101F078FF002840F030
:104270001F823846214601F086FF00281CBF41F608
:104280000007CCF2B8573846294601F067FF0028EE
:104290001CBF46F20067C4F256773846002101F091
:1042A00064FF002842D148F6FA213846C9F2242199
:1042B00002F022F942F2DB41C9F64A1101F0D8FEC0
:1042C000394602F019F948F63861C9F6CC7101F0A7
:1042D000CFFE394602F010F944F29F31CAF2D751AD
:1042E00001F0C6FE394602F007F94BF2A701CAF603
:1042F0007C3101F0BDFE394602F0FEF84EF27A51F3
:10430000CBF2940101F0B4FE394602F0F5F848F61C
:104310005811CBF29C5101F0ABFE394602F0ECF89B
:1043200043F69401C3F6CE4153E000BF44F60001CA
:104330003846C4F2A16101F026FF002850D04EF2A9
:104340006F513846C8F25F5102F0D6F84AF28D013B
:10435000C0F6AB5101F08CFE394602F0CDF848F2C0
:10436000CD51C9F25A5101F083FE394602F0C4F82A
:1043700042F28771C1F6944101F07AFE394602F0AB
:10438000BBF848F64401CAF2623101F071FE3946C9
:1043900002F0B2F843F64561C2F6BB1101F068FEC7
:1043A000394602F0A9F849F67041CAF6897101F060
:1043B0005FFE394602F0A0F84CF66431C3F2A83132
:1043C00001F056FE394602F097F847F60441C3F66D
:1043D000CD4101F04DFE0146384602F08DF839E03E
:1043E00040F634213846C9F21A5102F085F844F2F9
:1043F000CB41C1F6266101F03BFE394602F07CF864
:1044000041F2DB41CAF28B6101F032FE394602F023
:1044100073F845F26771C2F6706101F029FE394602
:1044200002F06AF84EF63251CBF2DC5101F020FE78
:10443000394602F061F84DF68C01C3F6455101F0A2
:1044400017FE394602F058F84CF64961CCF20331B8
:1044500001F00EFE314602F055F920F000405146C1
:1044600001F07CFE002840F0238108F10408B8F137
:10447000180F7FF4EBAE0020C4F27A40FFF7D8FDAE
:104480000025C4F2C81504462846FFF7D1FD0146B1
:10449000204602F037F904462846FFF7C9FD0146D9
:1044A000204601F0E5FD41F60001CCF2B85104468A
:1044B00001F069FE46F2006100281CBF41F60004CD
:1044C000CCF2B854C4F25671204601F047FE0028E1
:1044D0001CBF46F20064C4F256742046002101F06D
:1044E00044FE002842D148F6FA21C9F22421204690
:1044F00002F002F842F2DB41C9F64A1101F0B8FDC0
:10450000214601F0F9FF48F63861C9F6CC7101F097
:10451000AFFD214601F0F0FF44F29F31CAF2D751BE
:1045200001F0A6FD214601F0E7FF4BF2A701CAF614
:104530007C3101F09DFD214601F0DEFF4EF27A5103
:10454000CBF2940101F094FD214601F0D5FF48F62D
:104550005811CBF29C5101F08BFD214601F0CCFFAC
:1045600043F69401C3F6CE4153E000BF44F6000188
:10457000C4F2A161204601F006FE002850D04EF2A0
:104580006F51C8F25F51204601F0B6FF4AF28D012B
:10459000C0F6AB5101F06CFD214601F0ADFF48F2D1
:1045A000CD51C9F25A5101F063FD214601F0A4FF3B
:1045B00042F28771C1F6944101F05AFD214601F0A3
:1045C0009BFF48F64401CAF2623101F051FD2146D9
:1045D00001F092FF43F64561C2F6BB1101F048FDC0
:1045E000214601F089FF49F67041CAF6897101F050
:1045F0003FFD214601F080FF4CF66431C3F2A83143
:1046000001F036FD214601F077FF47F60441C3F67D
:10461000CD4101F02DFD0146204601F06DFF39E04E
:1046200040F63421C9F21A51204601F065FF44F2E8
:10463000CB41C1F6266101F01BFD214601F05CFF74
:1046400041F2DB41CAF28B6101F012FD214601F01B
:1046500053FF45F26771C2F6706101F009FD214612
:1046600001F04AFF4EF63251CBF2DC5101F000FD71
:10467000214601F041FF4DF68C01C3F6455101F092
:10468000F7FC214601F038FF4CF64961CCF20331CA
:1046900001F0EEFC0021CCF27A4101F0E9FC4CF68D
:1046A000CD4120F00040C3F64C6101F057FD18B138
:1046B000002001B0BDE8F08F0020C4F2FA30FFF70F
:1046C000B7FC04460020FFF7B3FC0146204601F08A
:1046D000CFFC41F60001CCF2B851044601F053FD85
:1046E00046F2006100281CBF41F60004CCF2B85429
:1046F000C4F25671204601F031FD00281CBF46F27D
:104700000064C4F256742046002101F02EFD0028FA
:1047100042D148F6FA21C9F22421204601F0ECFEEC
:1047200042F2DB41C9F64A1101F0A2FC214601F038
:10473000E3FE48F63861C9F6CC7101F099FC2146D8
:1047400001F0DAFE44F29F31CAF2D75101F090FC39
:10475000214601F0D1FE4BF2A701CAF67C3101F0EF
:1047600087FC214601F0C8FE4EF27A51CBF294014B
:1047700001F07EFC214601F0BFFE48F65811CBF255
:104780009C5101F075FC214601F0B6FE43F6940100
:10479000C3F6CE4153E000BF44F60001C4F2A1616C
:1047A000204601F0F0FC002850D04EF26F51C8F2C4
:1047B0005F51204601F0A0FE4AF28D01C0F6AB51D8
:1047C00001F056FC214601F097FE48F2CD51C9F2A6
:1047D0005A5101F04DFC214601F08EFE42F28771E4
:1047E000C1F6944101F044FC214601F085FE48F6F3
:1047F0004401CAF2623101F03BFC214601F07CFE2B
:1048000043F64561C2F6BB1101F032FC214601F0CE
:1048100073FE49F67041CAF6897101F029FC214600
:1048200001F06AFE4CF66431C3F2A83101F020FCBD
:10483000214601F061FE47F60441C3F6CD4101F087
:1048400017FC0146204601F057FE39E040F63421BE
:10485000C9F21A51204601F04FFE44F2CB41C1F695
:10486000266101F005FC214601F046FE41F2DB41E4
:10487000CAF28B6101F0FCFB214601F03DFE45F2DE
:104880006771C2F6706101F0F3FB214601F034FE5E
:104890004EF63251CBF2DC5101F0EAFB214601F039
:1048A0002BFE4DF68C01C3F6455101F0E1FB21468C
:1048B00001F022FE4CF64961CCF2033101F0D8FB45
:1048C0000021CCF2FA3101F0D3FB4CF6CD4120F0BF
:1048D0000040C3F64C6101F04FFC002818BF0120D6
:1048E00001B0BDE8F08F00BF0000C8C200000000AA
:1048F0000000C8410000FA4300007A440080AB4445
:10490000141A5EC5000000005C0F7A449448A1466A
:104910009C3B21475C665647406A0021C185C184A3
:10492000FEF77EBA7047000040F20410C2F20000A9
:10493000C089704738B140F20411C2F200010A7810
:104940004B789A4202D10020704700BF0A7801EBF1
:104950008202926902600878013000F0030008705A
:104960000120704740F20410C2F20000C088704776
:10497000B0B540F20414C2F200040025A570C4F8DA
:104980000A50FDF77DF8606140F24C20211DC2F213
:1049900000000122E5706570257025812582658201
:1049A0006571E580E581FEF7F9FDB0FA80F0400918
:1049B000E070B0BD2DE9F0410446FDF761F840F22A
:1049C0000418C2F20008B8F80A20C8F81400CD2A6A
:1049D00014D3002088F80200A8F80A00AA2C40F09E
:1049E000338140F21430C2F20000AA22027001208A
:1049F000A8F80A0088F80200BDE8F08198F80200E3
:104A0000DFE800F004062238144E00BFE6E700BFDE
:104A100040F21430C2F200008454501CA8F80A007E
:104A2000022088F80200BDE8F08100BF40F2143097
:104A3000C2F200008454501CA8F80A00052088F82F
:104A40000200BDE8F08100BFC92C80F0F88040F280
:104A50001430C2F200008454501CA8F80A0003204D
:104A6000A8F80C40002C08BF042088F80200BDE81C
:104A7000F08100BF40F21430C2F200008454501C98
:104A8000B8F80C20A8F80A00501E0204A8F80C0080
:104A900018BFBDE8F081042088F80200BDE8F0816D
:104AA00040F2143E501EC2F2000E03040EF8024003
:104AB0000CD01FFA80FC4FF6FF75BCF1010F4AF2D3
:104AC000010307D10020002468E000BF4FF6FF700B
:104AD00092E000BF2CF0010040426FF0010400BFE3
:104AE0000EEB0406B778F6787D4083EA5507E907B0
:104AF00008BF6F0883EA5701FD0708BF790883EAFA
:104B00005105CF0708BF4D0883EA5501EF0708BFDD
:104B1000690883EA5105CF0708BF4D0883EA5501AC
:104B2000EF0708BF690883EA5105CF0708BF4D08A2
:104B300083EA5501EF0708BF6908714083EA510510
:104B4000CE0708BF4D0883EA5501EE0708BF690884
:104B500083EA5105CE0708BF4D0883EA5501EE07E9
:104B600008BF690883EA5105CE0708BF4D0883EAEC
:104B70005501EE0708BF690883EA5106CD0708BF53
:104B80004E08F10704F1020483EA560500EB040124
:104B900008BF75080231A3D1023428465FEACC7100
:104BA0002AD01EF80400684083EA5001C70708BFF6
:104BB000410883EA5100CF0708BF480883EA500143
:104BC000C70708BF410883EA5100CF0708BF48085C
:104BD00083EA5001C70708BF410883EA5100CF07A5
:104BE00008BF480883EA5001C70708BF410883EAA5
:104BF0005100CB0708BF480802EB0E0111F8011C59
:104C00001EF8022041EA0221814213D19EF80100E0
:104C10009EF80220032835D0022817D001280ED193
:104C20006AB1012A48D19EF80310080901F00F0269
:104C300050E000BFB8F80E000130A8F80E000020C8
:104C400088F80200A8F80A00BDE8F081002AF6D032
:104C50009EF8032098F8010098F80010013000F049
:104C600003008842EBD098F801100123CFF60073BF
:104C700008EB81015F1C002A08BF9F1C8F6188F828
:104C80000100DCE79EF8033098F8010098F8001066
:104C9000013000F003008842D1D0002A08BF4FF055
:104CA000FF3398F801101A0608EB810104328A617B
:104CB00088F80100C3E700BF9EF803009EF80420B7
:104CC000072802D3C106BAD14009042A02D311072A
:104CD000B5D11209062898BF032AB0D80CA10B5CE5
:104CE0000DA0825C98F8010098F80010013000F0E7
:104CF00003008842A3D01B0298F8011043EA024245
:104D000042F07F4208EB810142F00102CFE700BF91
:104D10000020406080A0C0000010203010B540F29C
:104D20000414C2F20004A07848B1FCF7A9FE61693E
:104D3000401A332822BF0020A070C4F80A00E0788F
:104D400058B940F24C20211DC2F200000122FEF7AA
:104D500025FCB0FA80F04009E070607900B110BD28
:104D60002089218A8842FAD06079002818BF10BDB6
:104D70002089218A8842F2D02089218A40F2E832B3
:104D800088428CBF20894FF40070218AC2F2000251
:104D9000401A012160826171218A114482B240F27D
:104DA0004C20C2F20000FEF747FC00281CBF002088
:104DB000607110BDB0B540F20415C2F200050024C8
:104DC000AA20AC706C81FFF7F5FD0220FFF7F2FD21
:104DD0000120FFF7EFFD0120FFF7ECFD4020FFF77A
:104DE000E9FD6C20FFF7E6FD2878697888420CD051
:104DF000287805EB8000007E297802380131B0FA6E
:104E000080F001F00301440929702046B0BD000084
:104E1000C82A01D811B90AB1002070472DE9F0471E
:104E200040F20419EFF3108CEFF3108772B6C2F260
:104E30000009B9F80870B9F81060FD43F71B07F2D4
:104E4000FF1788BF7719531DBFB2BB420AD98CF335
:104E50001088B9F806000130A9F806000020BDE866
:104E6000F08700BFB9F8083040F2E83EC2F2000E09
:104E700055250EF80350B9F808304AF20105013300
:104E80006FF35F23A9F8083047F67F734340CFF6EE
:104E9000FF7585EA5306DF0708BF5E0845F6FF7316
:104EA00003EA5603F60718BF6B40C3F34E06DB0751
:104EB00018BF6E40C6F34E03F60718BF6B40C3F32E
:104EC0004E06DB0718BF6E40C6F34E03F60718BF49
:104ED0006B40C3F34E06DB0718BF6E40B9F808708D
:104EE000C6F34E030EF80700B9F80800F60700F104
:104EF00001006FF35F2018BF6B40A9F8080083EA38
:104F0000020083B285EA5306C00708BF5E08C6F3F5
:104F10004E00F30718BF6840C0F34E03C00718BF28
:104F20006B40C3F34E00DB0718BF6840C0F34E036D
:104F3000C00718BF6B40C3F34E00DB0718BF6840C3
:104F4000C0F34E06C00718BF6E40B9F80800C6F39C
:104F50004E030EF80020B9F80800F60700F1010032
:104F600018BF6B406FF35F20A9F8080032B1012A27
:104F70004AF2010A06D1002580E000BF98B2060A75
:104F8000B7E000BF02F0FE05C5F100086FF00105B3
:104F90004F19BE78023573409CB28AEA5400DB0791
:104FA00008BF60088AEA5003C40708BF43088AEABA
:104FB0005300DC0708BF58088AEA5003C40708BF3B
:104FC00043088AEA5300DC0708BF58088AEA5003FE
:104FD000C40708BF43088AEA5300DC0708BF580823
:104FE000B9F808308AEA50040EF80360B9F80830BE
:104FF000C60703F101036FF35F23A9F80830FF78B8
:1050000008BF440884EA07008AEA5003C40708BFBF
:1050100043088AEA5300DC0708BF58088AEA5003AD
:10502000C40708BF43088AEA5300DC0708BF5808D2
:105030008AEA5003C40708BF43088AEA5300DC0722
:1050400008BF58088AEA5004C30708BF4408B9F8E3
:1050500008008AEA54030EF80070B9F80800E60761
:1050600008BF6308013008EB05046FF35F200234CA
:10507000A9F808008CD198B2060A0235D00738D0BA
:10508000495D83EA010082B28AEA5203C00708BF81
:1050900053088AEA5300DA0708BF58088AEA500220
:1050A000C30708BF42088AEA5200D30708BF500866
:1050B0008AEA5002C30708BF42088AEA5200D307AF
:1050C00008BF50088AEA5002C30708BF4208B9F86F
:1050D00008008AEA52030EF80010B9F80800D40755
:1050E00000F1010008BF53086FF35F201E0AA9F802
:1050F0000800B9F808000EF80030B9F808000130CF
:105100006FF35F20A9F80800B9F808000EF80060F6
:10511000B9F8080001306FF35F20A9F808008CF39C
:10512000108899F8050018B10120BDE8F08700BF8C
:10513000B9F80800B9F810108842F5D0B9F808009D
:10514000B9F8101088428CBFB9F808004FF400700D
:10515000B9F81010401A0121A9F8120089F80510B9
:10516000B9F8101082B240F24C207144C2F2000033
:10517000FEF762FA00281CBF002089F80500012014
:10518000BDE8F087002804BF0020704780B540F2DA
:105190005C110278437890F802C090F803E0C2F204
:1051A00000010A704B700CF030020EF00F031A442D
:1051B0008A708288C388A1F80320A1F80530D0E95D
:1051C0000223C1F80B30438AC1F80720028AA1F8F4
:1051D0001130037EA1F80F20828A4B75C38AA1F893
:1051E000132011201822CB82BDE88040FFF710BEAB
:1051F000002804BF00207047B0B540F2741C00F1D5
:10520000100E0022C2F2000C835881184CF80230B4
:105210004B680CEB020463608B68A3600EEB020327
:1052200053F8043C1D0A237365731D0C1B0EA573F4
:10523000E3735EF80230203223821D0C1B0EA5742E
:10524000E3744B69802A63618B69A361C969E16179
:10525000DAD140F27411C2F2000110208022BDE8C0
:10526000B040FFF7D5BD000081B090F84210222970
:1052700021D183680246B3F5805F09D152F8281F17
:1052800052F8183C002B63D003685B680AE000BF4B
:1052900052F8281F13B90369002BF5D003685B6827
:1052A00003F07F030B70116801311160C18D01396A
:1052B0000A04C18502D001B0704700BF0168CA6806
:1052C00022F02002CA60CA6822F48072CA604A6969
:1052D00022F001024A61202180F84210002141633E
:1052E000026B012A3CD10163016851E8031F026887
:1052F00021F0100142E80313DBB1016851E8031FFC
:10530000026821F0100142E8031393B1016851E8EB
:10531000031F026821F0100142E803134BB101683A
:1053200051E8031F026821F0100142E80313002B2B
:10533000DAD101680A68D20606D5002200920A680E
:105340000092496800910099818D01B0FDF766BD1A
:10535000026852686FF35F2221F8022B8162A5E791
:1053600001B0FEF745B9000010B5044640684AF6A2
:105370002121C0F24401884207D346F69420C0F6AA
:10538000000040F6756100F07FF8E06840F40050DE
:10539000B0F5005F07D046F69420C0F6000040F656
:1053A000766100F071F82069002818BFB0F5806FB1
:1053B00056D1606918B14FF6F371084007D046F630
:1053C0009420C0F6000040F6786100F05DF8206897
:1053D000D4E902C22369016921F4405111430161FA
:1053E000616943EA0C021143C26841F20C639A43BB
:1053F0001143C1604169A26921F44071114343F630
:105400000002C4F201029042416103D0FCF75CFD4E
:1054100002E000BFFCF76CFDD4E9002319214843EA
:105420009900B0FBF1F048F21F51C5F2EB11A0FB5F
:10543000013463094FF69C74C0F6FF7403FB04004B
:10544000322404EB0010A0FB0101F02000EA51100F
:1054500000EB0310C1F343110844906010BD00BF7E
:10546000B0F5C06FA5D046F69420C0F6000040F617
:10547000776100F009F89CE740F24C20C2F200008E
:10548000FDF708BDFEE700007047000094B0FCF790
:105490000BFB00240120CDE90F44CDE90D440A9017
:1054A0000E904FF4E0104FF48031022513900AA8BB
:1054B000CDE90B14CDE91151FCF72EFD20B1EFF32E
:1054C000108072B6FEE700BF0F20CDE905054FF44E
:1054D0008060CDE9080405A802210794FCF7B4FB1D
:1054E00020B1EFF3108072B6FEE700BFFEF704F9BB
:1054F000FEF726F9FEF74AF90020ADF82800FFF77D
:1055000037FAFEF78DFE40F27005C2F2000518B9B9
:10551000287840F001002870FFF74CFC18B9287873
:1055200040F00100287005F13C073846FAF7CCFF3F
:105530000AA93846FBF736FABDF828000F2828815B
:1055400003D0297841F004012970FEF715FA4FF0D5
:1055500000092E4646F84C9FA6F110003146042261
:10556000C6E90199C6F80C904FF00408FAF7C0FF9D
:10557000FBF796FFFEF7F0F946F8380CFCF780FAD7
:1055800046F8340CFCF77CFA46F8300C40F22C104C
:10559000C2F2000041F2597A05AC011D4FF0010B37
:1055A0000830CDF2B71A02910190039729E000BFAD
:1055B000A86B8DF82B800C90FCF762FA0D90FEF72B
:1055C000CBF9ADF83800FEF707FA29692E78ADF867
:1055D0003A004FEA31400F908DF84060FFF7C2F972
:1055E00000281CBF46F008068DF84060FFF79CF9C4
:1055F00000281CBF46F010008DF840000AA8FFF7F5
:10560000C1FD2046FFF796F9002800F01B819DF8A8
:10561000140001380328F4D8DFE800F018BC027445
:1056200085F8019085F80590FBF778F9687895F88A
:1056300045108DF8280095F83F008DF82A108DF858
:105640002900A86885F804900B90B1E79DF8150033
:105650009DF81660FBF73AFB0178007A85F83F1059
:1056600095F840106A78090618BF4E46002808BF12
:105670000646012A384685F8456040F0D3800AAED8
:105680003146FAF7B5FE3846FBF714FC05F1080180
:105690003046FBF7F7FDFBF79FFD95F83F0085F8D7
:1056A00001B0A5F80290C5F80A9085F804B0FBF7A0
:1056B0000DFB406800EBC001A1FB0A2344F6D35266
:1056C000C1F26202A0FB0202580B42F2107399422F
:1056D0004FF0190138BF012001EB92112A89AB89E3
:1056E000C5E9080122EA030010F00F0008BF0F20EF
:1056F000E881FEF741F9FEF727F9FCF7C1F9A86246
:1057000092E000BF9DF81700082828BFFF206978A5
:10571000A87185F805B011B93846FBF7CBFB00201E
:10572000FBF786FC0020FBF7E7FCFBF755FD95F83F
:105730003F00A5F80290A5F80A9085F804B0FBF7A1
:10574000C5FA406800EBC001A1FB0A2344F6D3521E
:10575000C1F26202A0FB0202580B42F2107399429E
:105760004FF0190138BF012001EB92112A89AB8952
:10577000C5E9080122EA030010F00F0008BF0F205E
:10578000E881FEF7F9F8FEF7DFF8FCF779F9A8628F
:1057900037E700BF0AAE38463146FAF729FE3846E9
:1057A000FBF788FB05F108013046FBF76BFDFBF7C3
:1057B00013FD95F83F0085F801B0A5F80290C5F8F3
:1057C0000A9085F804B0FBF781FA406800EBC0014D
:1057D000A1FB0A2344F6D352C1F26202A0FB0202EB
:1057E000580B42F2107399424FF0190138BF012053
:1057F00001EB92112A89AB89C5E9080122EA03006D
:1058000010F00F0008BF0F20E881FEF7B5F8FEF793
:105810009BF8FCF735F96978A8628DF8281095F89F
:105820003F1006E0FBF746FB687895F83F108DF8CF
:1058300028008DF8291095F84500A9688DF82A00F0
:105840000B91B5E6FFF76AFA6878C8B96879B8B914
:10585000FCF716F90646FEF77FF86969884240F0C2
:105860009B806878012840F09D80A869301AB0F5C7
:105870007A7F40F29780287840F0020091E000BFE4
:105880002879032800F01081022800F09380012875
:1058900040F0EE82FCF7F4F8A96A2A6A461A9642AA
:1058A000C0F0E882FEF772F8D0B9686A8642C0F0AC
:1058B000E182FEF757F8E98931EA00020DD0AB89A1
:1058C0006E891343AB812B7832436A8143F0200207
:1058D00008402A70E881FEF74FF8288A01302882B4
:1058E00005F15C0100200022FBF7FAF985F82C0095
:1058F00005F1600101200022FBF7F2F985F82D0087
:1059000005F1640102200022FBF7EAF985F82E0078
:1059100005F1680103200022FBF7E2F9A97885F878
:105920002F00481CC1B28142A87040F090805020E6
:1059300085F80290FBF77CFBFBF74EFC95F83F00E7
:10594000FBF7C4F9406800EBC001A1FB0A2344F651
:10595000D352C1F26202A0FB0202580B42F2107352
:1059600099424FF0190138BF012001EB92112A89A9
:10597000AB89C5E9080122EA030010F00F0008BF57
:105980000F20E881FDF7F8FFFDF7DEFFFCF778F860
:10599000A862022028716DE22978C5E9050601F0A8
:1059A0007D002870E86941F28731301A88427FF61D
:1059B00028AE80E2FCF764F8A96A2A6A461A964281
:1059C000C0F05882FDF7E2FFD0B9686A8642C0F0A5
:1059D0005182FDF7C7FFE98931EA00020DD0AB899A
:1059E0006E891343AB812B7832436A8143F02002E6
:1059F00008402A70E881FDF7BFFF288A013028821D
:105A000005F16C0100200022FBF76AF985F83000EF
:105A100005F1700101200022FBF762F985F83100E1
:105A200005F1740102200022FBF75AF985F83200D3
:105A300005F1780103200022FBF752F9E97885F897
:105A40003300481CC1B28142E87000F0AF8195F884
:105A50003F00FBF73BF9406800EBC001A1FB0A23C4
:105A600044F6D352C1F26202A0FB0202580B42F28A
:105A7000107399424FF0190138BF012001EB9211C8
:105A80002A89AB89C5E9080122EA030010F00F005A
:105A900008BF0F20E881FDF76FFFFDF755FFFBF70B
:105AA000EFFFA862E6E100BFFBF7EAFFA96A2A6AF6
:105AB000461A9642C0F0DE81FDF768FFD0B9686AE9
:105AC0008642C0F0D781FDF74DFFE98931EA000237
:105AD0000DD0AB896E891343AB812B7832436A8139
